:1000A500750800750940750A00750BFF750CFF751D
:0500B5000DFF750E07B0
:1000C000E582FFA2E3E433FEEFC4540125E04206DB
:1000D000EFA2E5E43325E025E04206EF5401C40336
:1000E00054F84206EF035401C454F04206EF0303F0
:1000F0005401C42354E04206EF2323540103035464
:10010000C0420674805F4EF5822275190074F62590
:10011000194007E51904F51980F322AF827E0053D8
:10012000A0EFEF30E00543A020800353A0DFC0071D
:10013000C00612010A43A01012010AD006D007EF30
:10014000C313FF0EBE080040D622750F00751000C5
:100150007511007512007513007514007515007582
:10016000160043A03890000F75F040120171020391
:1001700031AD82AE83AFF0A2A9E433F517C2A95323
:10018000A0F7C007C006C00512010A75824012011F
:100190001B43A00812010A53A0F712010A7582C07E
:1001A00012011BD005D006D0077B00EB2DF8E43EF2
:1001B000F98F02888289838AF0121992FC740F5C8D
:1001C000F582C007C006C005C003C002C001C00060
:1001D00012011BD000D001D002888289838AF012DC
:1001E0001992C4540FF58212011BD003D005D0061A
:1001F000D0070BBB080040B343A00812010A53A06C
:10020000F712010A7488450EF58212011B43A008FB
:10021000E51724FF92A922AF82A2A9E433FEEF24BE
:10022000F850027F078F0E430788C2A953A0F7C07A
:1002300007C00612010AD006D0078F82C00612013D
:100240001BD00643A008EE24FF92A922E582600796
:100250007488450EFF80027F8053A0F7C00712010B
:100260000AD0078F8212011B43A00822AF82A2A9E5
:10027000E433FEC2A9EF60047D0180027D008D0899
:10028000E51824BF5003751840851809EF700CF568
:100290000A758201C00612024CD006EE24FF92A914
:1002A00022AE82AF83C3E49E74029F403A8E198FC0
:1002B0001A900007121928E583C313FC7407C39C26
:1002C000FCB50B04E50D600B8C82C004120217D044
:1002D000048C0BE50D605975184075820012026C94
:1002E000750D00750C40228E19EF24FEF51A900052
:1002F0003F1219287519FF751A011218E4AE82749D
:1003000040C39EFEE50B600D758200C00612021709
:10031000D006750B007401B50D05EEB50C01228EEB
:1003200018758201C00612026CD006750D018E0C84
:1003300022E589540F4401F589758CFF758AC6C280
:100340008DD2A9D2AFD28C22C021C0E0C0F0C08231
:10035000C083C007C006C005C004C003C002C001FE
:10036000C000C0D075D000758CFF758AC6C28DE5FF
:10037000086022E50A700875820112024C800BE5C4
:1003800009B50A0675820012024C050A74C0250AD6
:100390005003750A00D0D0D000D001D002D003D0D5
:1003A00004D005D006D007D083D082D0F0D0E0D0E2
:0203B0002132F8
:1019E8003F065B4F666D7D077F6F777C395E797147
:0300BA00752300AB
:1003B20075190074D825194007E51904F51980F359
:1003C20022AF825390DFEF60054390108003539079
:1003D200EF1203B24390200203B25390DF1203B232
:1003E200E59030E4047F0180027F00439020C00743
:1003F2001203B2D0078F8222AF825390DF4390085C
:10040200C0071203B2D0077E0074015FF582C007F5
:10041200C0061203C3D006D007EFC313FF0EBE08F7
:100422000040E67F00AE2274015EF582C007C0067E
:100432001203C3D006D007EEC313F5220FBF080084
:1004420040E35390F722E582FFC4540F24F6920052
:1004520040148F0653060FEE24F692004008C3E5BF
:10046200199F92005004C2008002D200A200E4331D
:10047200F5822275220075828E1203FA75220075AA
:1004820082801203FA7522007582821203FA7522A3
:10049200007582841203FA7522267582861203FA87
:1004A2007522087582881203FA75220375828A12F0
:1004B20003FA75222675828C1203FA7522807582E0
:1004C2008E0203FA90002475F04012054EE52430A6
:1004D200E70F1203B21203B290002475F040120526
:1004E2004EE524FF30E7067523010204757519599C
:1004F2008F82120448E58260498525827519591256
:100502000448E582603C852682751923120448E579
:1005120082602FE527FF602A7519318F8212044805
:10052200E582601EE528FF60197519128F82120498
:1005320048E582600D852A82751999120448E58280
:10054200700675230202047575230022AD82AE8304
:10055200AFF05390DF439008C007C006C0051203F6
:10056200B2D005D006D0077CBF7B0074015CF58257
:10057200C007C006C005C004C0031203C3D003D025
:1005820004D005D006D007ECC313FC0BBB08004017
:10059200DA4390107C007B007A00C007C006C005D9
:1005A200C004C003C0021203DCE582D002D003D033
:1005B20004D005D006D007600F8AF005F0740180E0
:1005C2000225E0D5F0FB42030ABA080040CCBC0782
:1005D200005012EC2DF8E43EF98F02888289838A5A
:1005E200F0EB12190D0CBC080040AB5390F722AD92
:1005F20082AE83AFF075220075828EC007C006C03E
:10060200051203FAD005D006D0078D028E038F049F
:100612008A828B838CF0121992FA747F5AF52275B2
:100622008280C007C006C0051203FAD005D006D0EA
:100632000774012DFAE43EFB8F048A828B838CF0CF
:10064200121992F522758282C007C006C0051203F4
:10065200FAD005D006D00774022DFAE43EFB8F04CF
:100662008A828B838CF0121992F522758284C007DC
:10067200C006C0051203FAD005D006D00774032DB8
:10068200FAE43EFB8F048A828B838CF0121992F576
:1006920022758286C007C006C0051203FAD005D0B3
:1006A20006D00774042DFAE43EFB8F048A828B8302
:1006B2008CF0121992F522758288C007C006C00517
:1006C2001203FAD005D006D00774052DFAE43EFBDA
:1006D2008F048A828B838CF0121992F52275828A9A
:1006E200C007C006C0051203FAD005D006D00774B1
:1006F200062DFDE43EFE8D828E838FF0121992F557
:100702002275828C1203FA75228075828E0203FA98
:0300000002004CAF
:100008000000E2FBEAF2802C0000E0FBEAF080242A
:10001800E6B50202EBF62200E2B50202EBF222009C
:10002800E0B50202EBF02230F6E0A88220F5D3EA30
:10003800C6F582228B822230F6E6A88220F5D98086
:01004800CFE8
:0300BD00020049F5
:0300490002187228
:1007120053B1FD43B20275985075D7E075D6FE7598
:100722008E14438E01228582997E007F00E59820F7
:10073200E10E0EBE00010FC3EE9430EF947540ED52
:100742005398FD22AD82AE83AFF08D828E838FF0FF
:10075200121992FC60188C820DBD00010EC007C0F8
:1007620006C005120728D005D006D00780DC22E596
:1007720082FFC4540F9019F893F582C0071207281C
:10078200D007740F5F9019F893F582020728E5826B
:10079200FF70067582300207287E00EF601CEE248F
:1007A2002EF90E8F058D0475F00AEC84ACF07430CE
:1007B2002CF775F00AED84FF80E18E07EF60101FC1
:1007C200EF242EF98782C007120728D00780ED2276
:1007D200AE82AF837C007D00C3EC9EED9F50147A05
:1007E200B07B041ABAFF011BEA4B70F70CBC00E89D
:1007F2000D80E522AE82AF8353A0FD8E828F8312DD
:1008020007D243A00222AF8274075F4488F5BCE599
:10081200BC30E4FB53BCEFAEBD7F00EE2EFEEF33E7
:10082200FFEE2EFEEF33FFACBE5304037D00EC4E11
:10083200F582ED4FF58322E5B0030354017006E51E
:10084200B0A2E35004C2018002D201A201E433F556
:100852008222AD82AE83AFF074062DFAE43EFB8FA6
:1008620004A919890075F00AE884E5F09019E89363
:100872008A828B838CF012190D74072DFDE43EFEE3
:1008820075F00AE9849019E8938D828E838FF002C5
:10089200190DAD82AE83AFF07C00EC2DF9E43EFA87
:1008A2008F0389828A838BF0E412190D0CBC060037
:1008B20040E822AD82AE83AFF07519E8751A038560
:1008C2003182853283C007C006C0051218E4AB82AC
:1008D200AC83D005D006D007EB24E8F582EC3419BE
:1008E200F583E4938D828E838FF012190D74012D9E
:1008F200FAE43EFB8F04751964751A00853182850E
:100902003283C007C006C005C004C003C00212186B
:10091200E475190A751A00121945A882A983D00232
:10092200D003D004D005D006D007E824E8F582E948
:100932003419F583E4938A828B838CF012190D7437
:10094200022DFAE43EFB8F0475190A751A008531EF
:1009520082853283C007C006C005C004C003C0023E
:100962001218E475190A751A00121945A882A9838A
:10097200E824E8F582E93419F583E493F58212005C
:10098200C0A982D002D003D004D005D006D0078AF5
:10099200828B838CF0E912190D74032DFDE43EFE67
:1009A20075190A751A00853182853283C007C0061F
:1009B200C005121945AB82AC83D005D006D007EB37
:1009C20024E8F582EC3419F583E4938D828E838FCB
:1009D200F002190DAD82AE83AFF0AC338C0375F02B
:1009E2000AEB849019E8938D828E838FF012190D91
:1009F20074012DF9E43EFA8F0375F00AEC84E5F0F8
:100A02009019E89389828A838BF012190D74022D52
:100A1200FAE43EFB8F04A934890075F00AE8849059
:100A220019E893F582C007C006C005C004C003C020
:100A320002C0011200C0A882D001D002D003D004AB
:100A4200D005D006D0078A828B838CF0E812190D6C
:100A520074032DFDE43EFE75F00AE984E5F0901979
:100A6200E8938D828E838FF002190DAD82AE83AF33
:100A7200F0E53660047C3F80027C797B00EB2DF848
:100A8200E43EF98F02BB022A8C82C007C006C00571
:100A9200C004C003C002C001C0001200C08582377A
:100AA200D000D001D002D003D004D005D006D007A8
:100AB20080028C37888289838AF0E53712190D0B00
:100AC200BB060040B88535198D828E838FF0C00732
:100AD200C006C005120854D005D006D0078D828EFC
:100AE200838FF01201719003200207D285823C8528
:100AF200833D85F03E754101E4F53FF540C3E53F96
:100B0200953AE540953B4003020B80E54160118533
:100B12003819853C82853D83853EF0120854802930
:100B22007406253CF8E4353DF9AC3E7407253CFAE1
:100B3200E4353DFBAF3E8A828B838FF0E412190DC0
:100B4200888289838CF012190D853C82853D8385CC
:100B52003EF0120171E53955B070047582012290A0
:100B620000FA1207D274FA253FF53FE43540F5400A
:100B7200E541B401009202E433F541020AFF7582B5
:100B82000022AD82AE83AFF07C00EC2DF9E43EFA98
:100B92008F0389828A838BF074FF12190D0CBC08B3
:100BA2000040E722AD82AE83AFF0E54260047C3FB5
:100BB20080027C797B00EB2DF8E43EF98F02BB02C8
:100BC2002A8C82C007C006C005C004C003C002C090
:100BD20001C0001200C0858243D000D001D002D0F3
:100BE20003D004D005D006D00780028C43888289C6
:100BF200838AF0E54312190D0BBB080040B822901E
:100C0200004475F04012054EE54430E730754B0064
:100C1200754C00754D00754E01754F01755001758B
:100C2200512690004B75F0401205F190004475F08A
:100C32004012054EE54430E70475820022AF448F2E
:100C42000553057FE4CDC4540F6DCD540FCD6DCD4A
:100C520030E30244F0ED75F00AA4FD740F5F2DFF3E
:100C62007D007E0090004475F040C007C006C005BC
:100C720012054ED005D006D007AC448C0253027F39
:100C8200E4CAC4540F6ACA540FCA6ACA30E302449F
:100C9200F0EA75F00AA4FA740F5C2AB50702800420
:100CA20075820122900001C007C006C0051207D25A
:100CB200D005D006D0070DBD00010EC3ED9410EE95
:100CC200942740A075820022AF825398FD8F997EAF
:100CD200007F00E59820E10E0EBE00010FC3EE94E6
:100CE20030EF947540ED5398FD22AD82AE83AFF0A4
:100CF2007B007C00E59820E01D0BBB00010CC3EBE0
:100D02009450EC94C340ED8D828E838FF074FF1269
:100D1200190D758200228D828E838FF0E59912194A
:100D22000D5398FE7582012275190074D825194059
:100D320007E51904F51980F32275C65A75C6A5028E
:100D42000D2A75C70075C50075C60075C38075C4C8
:100D520000227F0175C78475C31275C40075C5036F
:100D6200C007120D3BD0077D007E008E0474122C4A
:100D7200F5C38DC475C501C007C006C005120D3B81
:100D8200D005D006D00774FFB5C20280047F008070
:100D92000A0DBD00010E74FE2E50D0EF60557E008C
:100DA20075C312EE901A1993F5C4EE901A1C93F5BE
:100DB200C275C502C007C006120D3BD006D0070E91
:100DC200BE030040DB7E0075C312EE901A1993F544
:100DD200C475C501C007C006120D3BD006D007EE90
:100DE200901A1C93B5C20280047F0080060EBE03D7
:100DF2000040D4E5C730E40553C7EF7F00C00712B7
:100E02000D44D0078F8222E4FFF52BF52C901A5562
:100E120075F080C007120746D00790005275F04067
:100E2200C007120894D0077E00EE2452F876FF0E17
:100E3200BE060040F490005275F040C007120171E6
:100E4200901A6975F080120746D0077E007C007DFB
:100E520000C3EC94A0ED940F5068EE60087558FF43
:100E62007559FF80169019E9E493FB74804BF5588D
:100E72009019E8E493FB74804BF55990005275F099
:100E820040C007C006C005C004120171D004D005DD
:100E9200D006D007E5B030E3299001F4C007C006C0
:100EA200C005C0041207D2D004D005D006D0077402
:100EB200F42CFC74013DFDEEB401009203E433FE18
:100EC200808F90005275F040C007120894D00775C9
:100ED200190290005275F040C007120854D00790D2
:100EE200005275F040C007120171901AA175F0808E
:100EF20012074690005A75F04012054ED007E55A87
:100F020030E72B75630075640075650075660175C1
:100F1200670175680175692690006375F040C00726
:100F22001205F190005A75F04012054ED007AE5AE4
:100F32008E0453047FE4CCC4540F6CCC540FCC6C9D
:100F4200CC30E30244F0EC75F00AA4FC740F5E2C82
:100F5200F5617C007D0090005A75F040C007C00525
:100F6200C00412054ED004D005D007AB5A8B0253F1
:100F7200027FE4CAC4540F6ACA540FCA6ACA30E371
:100F82000244F0EA75F00AA4FA740F5B2AB5610212
:100F920080047F018020900001C007C005C00412B8
:100FA20007D2D004D005D0070CBC00010DC3EC94CD
:100FB20010ED942740A07E0090005A75F040C007C3
:100FC200C00612054ED006D007E55CC4540F75F07A
:100FD2000AA4FDAC5C740F5C2DFDE55BC4540F7577
:100FE200F00AA4FCAB5B740F5B2CF562AB5A8B026C
:100FF20053027FE4CAC4540F6ACA540FCA6ACA3081
:10100200E30244F0EA75F00AA4FA740F5B2AFA903C
:10101200005275F040C007C006C005C00212089415
:10102200D002D005D006D0078D0475F00AEC84906A
:1010320019E893F55275F00AED84E5F09019E893FA
:10104200FD74804DF553AC628C0575F00AED849009
:1010520019E893F582C007C006C004C0021200C09E
:10106200E582D002D004D006D007F55475F00AEC20
:1010720084E5F09019E893F5558A0575F00AED8438
:10108200E5F09019E893F55675F00AEA849019E8AC
:1010920093F55775190290005275F040C007C006CB
:1010A200120854D006D00790005275F040C007C015
:1010B200061201719001F41207D2D006D0070EBEBB
:1010C2000A005003020FBAEF600F901AB375F08056
:1010D200C007120746D0078010432B02901AC27530
:1010E200F080C007120746D0077535028F36900090
:1010F2005275F040120A6D7F007E0190005275F029
:1011020040C007C006120894D006D0077519039094
:10111200005275F040C007C006120854D006D0072E
:1011220090005275F040C007C006120171901AD1AA
:1011320075F0801207465398FE758255120CCA90BC
:10114200006A75F040120CECE582D006D007600709
:101152007455B56A027F01EF700302122D7F00EF12
:1011620075F011A4FD5398FE8D82C007C006C0051C
:10117200120CCA90006A75F040120CECE582D005A0
:10118200D006D0076006EDB56A0280027E009000AC
:101192005275F040C007C006C005120894D005D0B1
:1011A20006D007EDC4540F901A0993F552740F5DDF
:1011B200901A0993F553E56AC4540F901A0993F5EE
:1011C20082C007C0061200C0E582D006D007F554DF
:1011D200AD6A740F5D901A0993F555751903900065
:1011E2005275F040C007C006120854D006D00790CE
:1011F200005275F040C007C0061201719003E81258
:1012020007D2D006D0070FBF10005003021161EEC3
:10121200600B901B0075F0801207468017432B0469
:10122200901B1E75F0801207468009901B4275F0D4
:101232008012074690005275F0401208947552765B
:1012420075537375190390005275F040120854904B
:10125200005275F040120171900BB81207D27F0054
:101262007E008F6B90005275F040C007C0061208D6
:1012720094D006D00775190490005275F040C0074B
:10128200C006120854D006D007753300753400909A
:10129200005275F040C007C0061209D6D006D0072A
:1012A20090005275F040C007C006120171901B7E7B
:1012B20075F080120746D006D0077B007C00C3EB96
:1012C2009488EC941340030213EFE5B020E2779088
:1012D200001EC007C006C004C0031207D2D003D04C
:1012E20004D006D007E5B020E25C8F027D008A823E
:1012F2008D83A37519648D1AC006C004C003121928
:10130200AEAA82D003D004D0068A078F338E3490DF
:10131200005275F040C007C006C004C0031209D6CF
:10132200D003D004D006D00790005275F040C00719
:10133200C006C004C003120171D003D004D006D08D
:1013420007E5B030E2FBE5B020E37790001EC0076E
:10135200C006C004C0031207D2D003D004D006D006
:1013620007E5B020E35C8E027D008A828D83A3753F
:1013720019648D1AC007C004C0031219AEAA82D024
:1013820003D004D0078A068F338E3490005275F052
:1013920040C007C006C004C0031209D6D003D0045F
:1013A200D006D00790005275F040C007C006C004B6
:1013B200C003120171D003D004D006D007E5B030CB
:1013C200E3FBEF6008EE6005756B01802090000A78
:1013D200C007C006C004C0031207D2D003D004D095
:1013E20006D007740A2BFBE43CFC0212C0E56B60DA
:1013F2001A901BA875F080120746753504753601E0
:1014020090005275F040120A6D801B432B08901B0E
:10141200B775F08012074675350475360090005294
:1014220075F040120A6D90005275F04012089475E2
:10143200527C7553797582791200C0E582F5547534
:10144200557375190590005275F0401208549000BA
:101452005275F040120171901BC675F0801207465A
:101462007F0053A0FD9000C8C0071207D243A0021C
:101472009000C81207D2D0070FBF030040E49000CB
:101482005275F04012089475520675537975825E52
:101492001200C0E582F55475190690005275F040AD
:1014A20012085490005275F040120171901BD975C8
:1014B200F0801207467F005390FB9000FAC007129B
:1014C20007D24390049000FA1207D2D0070FBF0A46
:1014D2000040E45390FB90005275F040120894755E
:1014E200190790005275F04012085490005275F09E
:1014F20040120171758200120808AE82AF83901B00
:10150200EC75F080C007C006120746D0068E82C076
:1015120006120790901BF975F080120746D006D08C
:101522000790005275F040C007C006120894D0061A
:10153200D0078E318F3290005275F040C007C0063E
:101542001208B5D006D00775190790005275F04001
:10155200C007C006120854D006D00790005275F09A
:1015620040C007C0061201719027101207D2D006A0
:10157200D007EE4F6023C3EE94FFEF9403501A900E
:101582001BFC75F080120746753507753601900011
:101592005275F040120A6D801B432B40901C0B7554
:1015A200F08012074675350775360090005275F0C7
:1015B20040120A6D90005275F04012089475190895
:1015C20090005275F04012085490005275F040128B
:1015D2000171758201120808AE82AF83901C1A75E0
:1015E200F080C007C006120746D0068E82C00612DF
:1015F2000790901BF975F080120746D006D007902D
:10160200005275F040C007C006120894D006D007F9
:101612008E318F3290005275F040C007C00612081A
:10162200B5D006D00775190890005275F040C00772
:10163200C006120854D006D00790005275F040C080
:1016420007C0061201719027101207D2D006D007E8
:10165200EE4F6023C3EE94FFEF9403501A901C27C1
:1016620075F080120746753508753601900052757F
:10167200F040120A6D801B432B80901C3675F0805F
:1016820012074675350875360090005275F0401203
:101692000A6D90005275F040120894751909900075
:1016A2005275F04012085490005275F040120171C8
:1016B200901C4575F080120746120D54AF829000BF
:1016C2005275F040C007120894D007EF60177553A7
:1016D200739019E9E493F582C0071200C0E582D045
:1016E20007F5548011755379758279C0071200C0CD
:1016F200E582D007F55475190990005275F040C083
:1017020007120854D00790005275F040C00712012A
:1017120071D007EF600B901C6575F0801207468050
:101722000C432C01901C7775F080120746901388A9
:101732001207D290005275F04012089475190A905F
:10174200005275F04012085490005275F040120198
:1017520071901C8975F080120746AF2D74312FF5F8
:1017620082120728E52D700B901C9F75F0801207DE
:101772004680197401B52D0B901CB475F0801207C8
:10178200468009901CD075F0801207469000527571
:10179200F040120894755273AF2D0FEF3395E0FEAF
:1017A200EF24E8F582EE3419F583E493F5537519C5
:1017B2000A90005275F04012085490005275F040A1
:1017C2001201719013881207D2E4B52B07B52C04CD
:1017D20074018001E4F54290005275F040120BA6AC
:1017E20090005275F040120171E52B452C701B9050
:1017F2001CF075F0801207469000781207F69000F0
:10180200781207D29000780207F6901CFB75F080E0
:101812001207467F008FF005F07D017E008006ED05
:101822002DFDEE33FED5F0F7E52B5205E52C5206E1
:10183200ED4E6027EF75F003A4241FF582741A356C
:10184200F0F583E493FCA3E493FDA3E493FE8C827E
:101852008D838EF0C007120746D0070FBF090040E4
:10186200B4901BF975F0801207469002580207F6F1
:101872005395FD43960243A00253B1F353B2F3537F
:1018820090FB439D034391035392FC75BC809000EF
:10189200011207D212014A7582071202179000C87C
:1018A2001207D2120712901D0275F080120746909D
:1018B20001F41207D21204C685232D120E09120852
:1018C20039E582600D9000321207D2120839E582A2
:1018D20070089000321207D280E490012C1207D2D5
:0218E20080D9AB
:1019F800303132333435363738394142434445463D
:101A0800003F065B4F666D7D077F6F777C395E7997
:101A1800710001FF5AA53C3A1A803D1A80401A808D
:101A2800431A80461A80491A804C1A804F1A8052ED
:101A38001A80543100543200543300543400543561
:101A4800005436005437005438005439003D3D3DA9
:101A58003D2048572054455354203D3D3D3D0D0AF7
:101A680000543120444953503A20616C6C2073650E
:101A7800676D656E7473206C69743B20534D4732F3
:101A88002030312E2F38382E205B636F6E666972D6
:101A98006D205345545D0D0A005432205254433A88
:101AA800207469636B696E670D0A005432205254C2
:101AB800433A20504153530D0A00543220525443A4
:101AC8003A204641494C0D0A00543320554152549E
:101AD8003A2054582062616E6E65722028726561E2
:101AE8006461626C65203D2054582BE7848AE68E39
:101AF800A5204F4B290D0A00543320554152543A22
:101B0800205041535320286C6F6F706261636B20C3
:101B18006F6B290D0A00543320554152543A204620
:101B280041494C20286C6F6F706261636B206D694E
:101B3800736D61746368290D0A005433205541524E
:101B4800543A205458206F6B2C206C6F6F70626170
:101B5800636B206E6F742073686F72746564202DD8
:101B68003E20736B697020525820286E6F20666182
:101B7800696C290D0A005434204B45593A205345C5
:101B8800542D3E68692B312C2055502D3E6C6F2BFF
:101B980031202877697468696E203573290D0A0029
:101BA8005434204B45593A20504153530D0A0054A0
:101BB80034204B45593A204641494C0D0A005435CA
:101BC80020424545503A20332062656570730D0AFE
:101BD800005436204C45443A20626C696E6B2035BF
:101BE800730D0A005437204C44523A207261773DF5
:101BF800000D0A005437204C44523A2050415353A8
:101C08000D0A005437204C44523A204641494C0DA5
:101C18000A005438204E54433A207261773D0054EC
:101C280038204E54433A20504153530D0A0054383B
:101C3800204E54433A204641494C0D0A005439205D
:101C4800454550524F4D3A2065726173652B726459
:101C58002F7772203078313230300D0A0054392015
:101C6800454550524F4D3A20504153530D0A0054A8
:101C78003920454550524F4D3A204641494C0D0AAE
:101C88000054313020524554454E54494F4E3A2065
:101C9800636F64653D5000205041535320286261B2
:101CA8007474657279206F6B290D0A0020574152B0
:101CB8004E202873746F707065643A206E657720C3
:101CC80063656C6C290D0A00205741524E20287319
:101CD800746F707065643A20646561642062617431
:101CE80074657279290D0A00414C4C2050415353B8
:101CF8000D0A004641494C203D004857544553546D
:081D080020626F6F740D0A00E8
:1018E4007A10E4FBFCE58225E0F582E58333F58399
:1018F400EB33FBEC33FCEB9519F5F0EC951A400651
:09190400FCABF0438201DADD22A4
:06007B00E4787FF6D8FDD9
:100059007900E94400601B7A00901D10780175A0B1
:1000690000E493F2A308B8000205A0D9F4DAF27506
:02007900A0FFE6
:10190D0020F71130F6138883A88220F509F6A883F5
:10191D007583002280FEF280F5F022E5828519F0B4
:10192D00A4C582C0F0851AF0A4D0F025F0C583853A
:10193D0019F0A42583F58322E519451A60467A012D
:10194D00E51925E0F519E51A334012F51AE58295EA
:10195D0019E583951A40030A80E6C3E51A13F51AB3
:10196D00E51913F519C3E5829519F5F0E583951A77
:10197D004005F58385F082C3E51A13F51AE51913B1
:05198D00F519DAE1226A
:100081007800E84400600A790175A000E4F309D81A
:10009100FC7800E84400600C7900900001E4F0A3D2
:0400A100D8FCD9FAB4
:0D004C0075816B1219E4E582600302004922
:1019920020F71430F6148883A88220F507E6A8837E
:1019A20075830022E280F7E49322E022C2D5E58328
:1019B20030E70DD2D5E4C39582F582E49583F583B1
:1019C200E51A30E70BE4C39519F519E4951AF51AEF
:1019D20012194530D50BE4C39582F582E49583F55F
:0619E20083227582002241
:00000001FF
