:1000A500750800750940750A00750BFF750CFF751D
:0500B5000DFF750E07B0
:1000C500E582FFA2E3E433FEEFC4540125E04206D6
:1000D500EFA2E5E43325E025E04206EF5401C40331
:1000E50054F84206EF035401C454F04206EF0303EB
:1000F5005401C42354E04206EF232354010303545F
:10010500C0420674805F4EF5822275190074F6258B
:10011500194007E51904F51980F322AF827E0053D3
:10012500A0EFEF30E00543A020800353A0DFC00718
:10013500C00612010F43A01012010FD006D007EF21
:10014500C313FF0EBE080040D622750F00751000C0
:10015500751100751200751300751400751500757D
:10016500160043A03890000F75F040120176020387
:1001750036AD82AE83AFF0A2A9E433F517C2A95319
:10018500A0F7C007C006C00512010F758240120115
:100195002043A00812010F53A0F712010F7582C06A
:1001A500120120D005D006D0077B00EB2DF8E43EE8
:1001B500F98F02888289838AF01215ACFC740F5C72
:1001C500F582C007C006C005C003C002C001C0005B
:1001D500120120D000D001D002888289838AF012D2
:1001E50015ACC4540FF582120120D003D005D006FA
:1001F500D0070BBB080040B343A00812010F53A062
:10020500F712010F7488450EF58212012043A008EC
:10021500E51724FF92A922AF82A2A9E433FEEF24B9
:10022500F850027F078F0E430788C2A953A0F7C075
:1002350007C00612010FD006D0078F82C006120133
:1002450020D00643A008EE24FF92A922E58260078C
:100255007488450EFF80027F8053A0F7C007120106
:100265000FD0078F8212012043A00822AF82A2A9D6
:10027500E433FEC2A9EF60047D0180027D008D0894
:10028500E51824BF5003751840851809EF700CF563
:100295000A758201C006120251D006EE24FF92A90A
:1002A50022AE82AF83C3E49E74029F403A8E198FBB
:1002B5001A900007121542E583C313FC7407C39C0B
:1002C500FCB50B04E50D600B8C82C00412021CD03A
:1002D500048C0BE50D60597518407582001202718A
:1002E500750D00750C40228E19EF24FEF51A90004D
:1002F5003F1215427519FF751A011214FEAE82746C
:1003050040C39EFEE50B600D758200C00612021CFF
:10031500D006750B007401B50D05EEB50C01228EE6
:1003250018758201C006120271D006750D018E0C7A
:1003350022E589540F4401F589758CFF758AC6C27B
:100345008DD2A9D2AFD28C22C021C0E0C0F0C0822C
:10035500C083C007C006C005C004C003C002C001F9
:10036500C000C0D075D000758CFF758AC6C28DE5FA
:10037500086022E50A7008758201120251800BE5BA
:1003850009B50A06758200120251050A74C0250ACC
:100395005003750A00D0D0D000D001D002D003D0D0
:1003A50004D005D006D007D083D082D0F0D0E0D0DD
:0203B5002132F3
:101602003F065B4F666D7D077F6F777C395E797130
:0300BA00752300AB
:1003B70075190074D825194007E51904F51980F354
:1003C70022AF825390DFEF60054390108003539074
:1003D700EF1203B74390200203B75390DF1203B71E
:1003E700E59030E4047F0180027F00439020C0073E
:1003F7001203B7D0078F8222AF825390DF43900852
:10040700C0071203B7D0077E0074015FF582C007EB
:10041700C0061203C8D006D007EFC313FF0EBE08ED
:100427000040E67F00AE2274015EF582C007C00679
:100437001203C8D006D007EEC313F5220FBF08007A
:1004470040E35390F722E582FFC4540F24F692004D
:1004570040148F0653060FEE24F692004008C3E5BA
:10046700199F92005004C2008002D200A200E43318
:10047700F5822275220075828E1203FF75220075A0
:1004870082801203FF7522007582821203FF752294
:10049700007582841203FF7522267582861203FF78
:1004A7007522087582881203FF75220375828A12E6
:1004B70003FF75222675828C1203FF7522807582D1
:1004C7008E0203FF90002475F040120553E5243097
:1004D700E70F1203B71203B790002475F040120517
:1004E70053E524FF30E70675230102047A7519598D
:1004F7008F8212044DE5826049852582751959124C
:10050700044DE582603C85268275192312044DE56A
:1005170082602FE527FF602A7519318F8212044DFB
:10052700E582601EE528FF60197519128F82120493
:100537004DE582600D852A8275199912044DE58271
:10054700700675230202047A75230022AD82AE83FA
:10055700AFF05390DF439008C007C006C0051203F1
:10056700B7D005D006D0077CBF7B0074015CF5824D
:10057700C007C006C005C004C0031203C8D003D01B
:1005870004D005D006D007ECC313FC0BBB08004012
:10059700DA4390107C007B007A00C007C006C005D4
:1005A700C004C003C0021203E1E582D002D003D029
:1005B70004D005D006D007600F8AF005F0740180DB
:1005C7000225E0D5F0FB42030ABA080040CCBC077D
:1005D700005012EC2DF8E43EF98F02888289838A55
:1005E700F0EB1215270CBC080040AB5390F722AD77
:1005F70082AE83AFF075220075828EC007C006C039
:10060700051203FFD005D006D0078D028E038F0495
:100617008A828B838CF01215ACFA747F5AF5227597
:100627008280C007C006C0051203FFD005D006D0E0
:100637000774012DFAE43EFB8F048A828B838CF0CA
:100647001215ACF522758282C007C006C0051203D9
:10065700FFD005D006D00774022DFAE43EFB8F04C5
:100667008A828B838CF01215ACF522758284C007C1
:10067700C006C0051203FFD005D006D00774032DAE
:10068700FAE43EFB8F048A828B838CF01215ACF55B
:1006970022758286C007C006C0051203FFD005D0A9
:1006A70006D00774042DFAE43EFB8F048A828B83FD
:1006B7008CF01215ACF522758288C007C006C005FC
:1006C7001203FFD005D006D00774052DFAE43EFBD0
:1006D7008F048A828B838CF01215ACF52275828A7F
:1006E700C007C006C0051203FFD005D006D00774A7
:1006F700062DFDE43EFE8D828E838FF01215ACF53C
:100707002275828C1203FF75228075828E0203FF89
:0300000002004CAF
:100008000000E2FBEAF2802C0000E0FBEAF080242A
:10001800E6B50202EBF62200E2B50202EBF222009C
:10002800E0B50202EBF02230F6E0A88220F5D3EA30
:10003800C6F582228B822230F6E6A88220F5D98086
:01004800CFE8
:0800BD00E4F55DF55E02004967
:030049000210E5BD
:1007170053B1FD43B20275985075D7E075D6FE7593
:100727008E14438E01228582997E007F00E59820F2
:10073700E10E0EBE00010FC3EE9430EF947540ED4D
:100747005398FD22AD82AE83AFF08D828E838FF0FA
:100757001215ACFC60188C820DBD00010EC007C0DD
:1007670006C00512072DD005D006D00780DC22E58C
:1007770082FFC4540F90161293F582C00712072DFB
:10078700D007740F5F90161293F58202072DE5824A
:10079700FF700675823002072D7E00EF601CEE2485
:1007A7002BF90E8F058D0475F00AEC84ACF07430CC
:1007B7002CF775F00AED84FF80E18E07EF60101FBC
:1007C700EF242BF98782C00712072DD00780ED226F
:1007D70012074B90162375F08012074BAD2EAE2FE4
:1007E700AF308D3D8E3E8F3F853D82853E83853F71
:1007F700F01215ACF582C007C006C0051207769047
:10080700162D75F08012074BD005D006D00774015E
:100817002DF531E43EF5328F33853182853283857C
:1008270033F01215ACF582C007C006C00512077673
:1008370090163375F08012074BD005D006D0077499
:10084700022DF534E43EF5358F36853482853583C0
:100857008536F01215ACF582C007C006C005120731
:100867007690163875F08012074BD005D006D00762
:1008770074032DF537E43EF5388F3985378285388F
:10088700838539F01215ACF582C007C006C0051282
:10089700077690163F75F08012074BD005D006D02B
:1008A7000774042DF53AE43EF53B8F3C853A828583
:1008B7003B83853CF01215ACF582C007C006C00526
:1008C70012077690164575F08012074BD005D006B3
:1008D700D00774052DF8E43EF98F04888289838C4C
:1008E700F01215ACF582C007C006C0051207769056
:1008F700164A75F08012074BD005D006D00774064C
:100907002DFDE43EFE8D828E838FF01215ACF582AD
:10091700C007C006C00512077690164F75F0801203
:10092700074BD005D006D007853D82853E83853F9E
:10093700F01215AC30E7047C3180027C308C82C029
:1009470007C006C00512072D90165575F0801207CF
:100957004B8534828535838536F01215ACFCC4543B
:100967000F75F00AA4FB740F5C2BF58212079575BF
:10097700823A12072D8531828532838533F012152D
:10098700ACFCC4540F75F00AA4FB740F5C2BF58202
:1009970012079575823A12072D853D82853E83851C
:1009A7003FF01215ACFCC4540F75F00AA4FB740F8A
:1009B7005C2BF58212079575822012072D853782E9
:1009C7008538838539F01215ACFCC4540F75F00ACD
:1009D700A4FB740F5C2BF58212079575822F120703
:1009E7002D853A82853B83853CF01215ACF5821242
:1009F700079575822F12072DD005D006D0078D8257
:100A07008E838FF01215ACF58212079590165D75DF
:100A1700F08002074BAE82AF837C007D00C3EC9E63
:100A2700ED9F50147AB07B041ABAFF011BEA4B7092
:100A3700F70CBC00E80D80E52253A0FD900096124C
:100A47000A1C43A00222AD82AE83AFF01215ACFCA4
:100A5700C4540FFB7A00740F5BF5198A1A90000AC9
:100A6700C007C006C005C004121542AA82AB83D0D6
:100A770004D005D006D0078C0153010F7C00E92A6A
:100A8700FAEC3BFB74012AFCE43BFBA9407A00C368
:100A9700E99CEA64808BF063F08095F050027C005B
:100AA7008C0275F00AEA84C454F0FA75F00AEC84F3
:100AB700E5F042028D828E838FF0EA021527E582E8
:100AC700FFC4540F75F00AA4FE740F5F2EFFE541B3
:100AD700C4540FFE7D00740F5EF5198D1A90000A3D
:100AE700C007121542E5828583F0D00724D0FD7434
:100AF7000735F0FEAB4153030F7C00EB2DFDEC3EB9
:100B0700FEBF0258751904751A008D828E83C006C0
:100B1700C0051215C8AB82AC83D005D006EB4C706C
:100B27001D751964F51A8D828E83C006C0051215CE
:100B3700C8E5828583F0D005D00645F07015751994
:100B470090751A018D828E831215C8AD82AE83ED22
:100B57004E70047E1D80027E1C8E8222BF010040E3
:100B670005EF24F3500475821F221FEF9016609340
:100B7700F5822285824285834385F04474032542AA
:100B8700FAE43543FBAC448A828B838CF01215ACB4
:100B9700F9C4540FF87F00740F58F5198F1A900095
:100BA7000AC004C003C002C001121542AE82AF835F
:100BB700D001D002D003D00453010F7D00E92EFEEF
:100BC700ED3FFF74042542F8E43543F9AD448882CC
:100BD70089838DF01215ACF54574062542F8E43586
:100BE70043F9AD44888289838DF01215ACF54185B0
:100BF7004582C007C006C004C003C002120AC5ADC3
:100C070082D002D003D004D006D0078D017D000E1C
:100C1700BE00010FC3E99EED64808FF063F08095FD
:100C2700F050027E018E0575F00AED84C454F0FD84
:100C370075F00AEE84E5F042058A828B838CF0ED2D
:100C470002152785824985834A85F04BAA46AB471B
:100C5700AC4874022AF8E43BF98C07888289838FB1
:100C6700F01215ACF8C4540F75F00AA4FF740F58AE
:100C77002FFF74012AF9E43BFD8C0689828D838E50
:100C8700F01215ACF9C4540F75F00AA4FE740F598D
:100C97002EFE8A008B018C05888289838DF01215C0
:100CA700ACF8C4540F75F00AA4FD740F582DFD74E9
:100CB700032AFAE43BFB8A828B838CF01215ACFA89
:100CC700C4540F75F00AA4FC740F5A2CFC8F0375DB
:100CD700F00AEB8490160293854982854A83854BF7
:100CE700F012152774012549F9E4354AFAAB4B751B
:100CF700F00AEF84E5F09016029389828A838BF0DD
:100D070012152774022549FAE4354AFBAF4B8E01C9
:100D170075F00AE98490160293F582C007C006C0F1
:100D270005C004C003C0021200C5A982D002D003C7
:100D3700D004D005D006D0078A828B838FF0E912C2
:100D4700152774032549FAE4354AFBAF4B75F00ABA
:100D5700EE84E5F0901602938A828B838FF012154A
:100D67002774052549FBE4354AFEAF4B8C0275F025
:100D77000AEA84901602938B828E838FF0121527CE
:100D870074042549FBE4354AFEAF4B75F00AEC8441
:100D9700E5F0901602938B828E838FF012152774DD
:100DA700072549FCE4354AFEAF4B8D0375F00AEB86
:100DB70084901602938C828E838FF0121527740607
:100DC7002549FCE4354AFEAF4B75F00AED84E5F0A2
:100DD700901602938C828E838FF00215278582519D
:100DE70085835285F053AA4CAB4DAC4E74022AF85A
:100DF700E43BF98C07888289838FF01215ACF8C41D
:100E0700540F75F00AA4FF740F582FFF74012AF9C5
:100E1700E43BFD8C0689828D838EF01215ACF9C4F4
:100E2700540F75F00AA4FE740F592EF5548A008BDF
:100E3700018C05888289838DF01215ACF8C4540F94
:100E470075F00AA4FD740F582DF55574032AF8E4BC
:100E57003BF98C05888289838DF01215ACF8C45450
:100E67000F75F00AA4FD740F582DF55674042AF86F
:100E7700E43BF98C05888289838DF01215ACF8C4A0
:100E8700540F75F00AA4FD740F582DF55774062AF0
:100E9700F8E43BF98C05888289838DF01215ACF84C
:100EA700C4540F75F00AA4FD740F582DF558740536
:100EB7002AFAE43BFB8A828B838CF01215ACFAC4C6
:100EC700540F75F00AA4FC740F5A2CF559AB568BC6
:100ED7000275F00AEA84FA75F00AEB84ABF0A955BB
:100EE700890075F00AE884F875F00AE984A9F074B6
:100EF70001B54F13AC578C0575F00AED84FA75F000
:100F07000AEC84ACF08C03E54F7013AD588D047573
:100F1700F00AEC84F875F00AED84ADF08D017403E6
:100F2700B54F02AA597404B54F03D38001C3920188
:100F37005008E55060047D00800C8F0475F00AECC2
:100F47008490160293FD8551828552838553F0ED77
:100F570012152774012551F55AE43552F55B85536F
:100F67005C300108E55060047D00800C75F00AEFE5
:100F770084E5F090160293FD855A82855B83855C34
:100F8700F0ED12152774022551FCE43552FDAF53DD
:100F97007405B54F03D38001C392015009E5506032
:100FA70005755A00800DAE5475F00AEE849016024E
:100FB70093F55A855A82C007C005C004C003C00212
:100FC700C001C0001200C5AE82D000D001D002D04F
:100FD70003D004D005D0078C828D838FF0EE1215D5
:100FE7002774032551FDE43552FEAF53300108E560
:100FF7005060047C008012C001A95475F00AE9848E
:10100700E5F090160293FCD0018D828E838FF0EC71
:1010170012152774052551FDE43552FEAF537401AF
:10102700B54F03D38001C39201400C7402B54F0240
:1010370080057403B54F08E55060047C008006EA1C
:1010470090160293FC8D828E838FF0EC1215277415
:10105700042551FDE43552FEAF5320010C7402B54F
:101067004F0280057403B54F04E55070057403B54E
:101077004F047C008006EB90160293FC8D828E83D2
:101087008FF0EC12152774072551FDE43552FEAF9A
:1010970053E54F60057406B54F08E55060047C00C2
:1010A7008006E890160293FC8D828E838FF0EC12F7
:1010B700152774062551FDE43552FEAF53E54F6001
:1010C700057406B54F08E55060047C008006E9907A
:1010D700160293FC8D828E838FF0EC021527E4F5C0
:1010E70075F576FDFCFBF577F5785395FD4396028C
:1010F70043A00253B1F353B2F35390FBC005C004AE
:10110700C00312071790166C75F08012074B120177
:101117004F9001F4120A1C1204CB90007975F0402D
:10112700120553752E79752F00753040901673751B
:10113700F0801207D790167875F08012074B852339
:101147008212079590165D75F08012074BD003D079
:1011570004D005E5B003035401B401009202E4335F
:10116700FFE5B0A2E3E433B401009202E433FE608A
:1011770051E576704DED70227D01FC90006E75F0A3
:1011870040C007C006C005C004C003120553D00302
:10119700D004D005D006D00780280CEC24F95022C3
:1011A7007D0090006E75F040C007C006C005C00402
:1011B700C0031205F6120A40D003D004D005D006AA
:1011C700D007EF70030212F6E57560030212F6ED21
:1011D70070030212F6EC24F950030212F6EC2C2CE1
:1011E7009011EB73021200021223021250021270C6
:1011F7000212920212B40212D675406390007475FF
:10120700F040C007C006C005C004C003120A4DD095
:1012170003D004D005D006D0070212F675400C9013
:10122700007275F040C007C006C005C004C00312B5
:101237000A4DD003D004D005D006D007E57260036D
:101247000212F67572010212F690006E75F040C038
:1012570007C006C005C004C003120B7AD003D00430
:10126700D005D006D0070212F675400690007375B8
:10127700F040C007C006C005C004C003120A4DD025
:1012870003D004D005D006D00780647540179000BE
:101297007075F040C007C006C005C004C003120A3D
:1012A7004DD003D004D005D006D007804275403B0F
:1012B70090006F75F040C007C006C005C004C003AA
:1012C700120A4DD003D004D005D006D00780207570
:1012D700403B90006E75F040C007C006C005C004D3
:1012E700C003120A4DD003D004D005D006D0078F13
:1012F700758E76ED602C754C6E754D00754E408C75
:101307004F8B5090005F75F040C007C006C005C006
:1013170004C003120DE4D003D004D005D006D007D3
:10132700804390006775F040C007C006C005C00441
:10133700C003120553D003D004D005D006D00775DB
:10134700466775470075484090005F75F040C007D5
:10135700C006C005C004C003120C4AD003D004D095
:1013670005D006D00790005F75F040C007C006C0E3
:1013770005C004C003120176D003D004D005D006FF
:10138700D00774142577F577E43578F578C3E577D2
:1013970094FAE57894004008E4F577F5786303015B
:1013A7007414255DF55DE4355EF55EC3E55D94FA7D
:1013B700E55E940050030214E9E4F55DF55EED6027
:1013C70028752E6E752F0075304090168575F08044
:1013D700C007C006C005C004C0031207D7D003D09A
:1013E70004D005D006D0078026752E67752F0075A7
:1013F700304090168975F080C007C006C005C0044C
:10140700C0031207D7D003D004D005D006D0079069
:10141700168E75F080C007C006C005C004C0031251
:10142700074BD003D004D005D006D007ED60047A6F
:101437003180027A308A82C007C006C005C004C066
:101447000312072D90169875F08012074BD003D022
:10145700048C82C004C00312079590169E75F08015
:1014670012074BD003D004D005D006D007EB600499
:101477007A3180027A308A82C007C006C005C0046C
:10148700C00312072D9016A675F08012074BD003E4
:10149700D004D005D006D007EF60047F3180027FEB
:1014A700308F82C006C005C004C00312072D9016F6
:1014B700AB75F08012074BD003D004D005D006EEF1
:1014C70060047F3180027F308F82C005C004C00373
:1014D70012072D90165D75F08012074BD003D004CC
:1014E700D005900014C005C004C003120A1CD00325
:0714F700D004D00502115AD8
:101612003031323334353637383941424344454626
:1016220000207261773D7365633A00206D696E3AFE
:10163200002068723A0020646174653A00206D6F80
:101642006E3A002077643A002079723A00202043F3
:10165200483D00202074696D653D000D0A001F1C85
:101662001F1E1F1E1F1F1E1F1E1F626F6F740D0A7B
:1016720000696E697400696E69745F616374696F91
:101682006E3D00736574006C6F6F7000207365743B
:1016920074696E673D00206964783D0020626C6960
:0F16A2006E6B3D002075703D00207365743D0038
:1014FE007A10E4FBFCE58225E0F582E58333F58383
:10150E00EB33FBEC33FCEB9519F5F0EC951A40063A
:09151E00FCABF0438201DADD228E
:06007B00E4787FF6D8FDD9
:100059007900E94400601B7A009016B1780175A017
:1000690000E493F2A308B8000205A0D9F4DAF27506
:02007900A0FFE6
:1015270020F71130F6138883A88220F509F6A883DF
:101537007583002280FEF280F5F022E5828519F09E
:10154700A4C582C0F0851AF0A4D0F025F0C5838524
:1015570019F0A42583F58322E519451A60467A0117
:10156700E51925E0F519E51A334012F51AE58295D4
:1015770019E583951A40030A80E6C3E51A13F51A9D
:10158700E51913F519C3E5829519F5F0E583951A61
:101597004005F58385F082C3E51A13F51AE519139B
:0515A700F519DAE12254
:100081007800E84400600A790175A000E4F309D81A
:10009100FC7800E84400600C7900900001E4F0A3D2
:0400A100D8FCD9FAB4
:0D004C0075811A1215FEE58260030200495D
:1015AC0020F71430F6148883A88220F507E6A88368
:1015BC0075830022E280F7E49322E022C2D5E58312
:1015CC0030E70DD2D5E4C39582F582E49583F5839B
:1015DC00E51A30E70BE4C39519F519E4951AF51AD9
:1015EC0012155F30D50BE4C39582F582E49583F533
:0615FC008322758200222B
:00000001FF
