:1000A500750800750940750A00750BFF750CFF751D
:0500B5000DFF750E07B0
:1000BD00E582FFA2E3E433FEEFC4540125E04206DE
:1000CD00EFA2E5E43325E025E04206EF5401C40339
:1000DD0054F84206EF035401C454F04206EF0303F3
:1000ED005401C42354E04206EF2323540103035467
:1000FD00C0420674805F4EF5822275190074F62594
:10010D00194007E51904F51980F322AF827E0053DB
:10011D00A0EFEF30E00543A020800353A0DFC00720
:10012D00C00612010743A010120107D006D007EF39
:10013D00C313FF0EBE080040D622750F00751000C8
:10014D007511007512007513007514007515007585
:10015D00160043A03890000F75F04012016E020397
:10016D002EAD82AE83AFF0A2A9E433F517C2A95329
:10017D00A0F7C007C006C005120107758240120125
:10018D001843A00812010753A0F71201077582C08A
:10019D00120118D005D006D0077B00EB2DF8E43EF8
:1001AD00F98F02888289838AF01206EEFC740F5C47
:1001BD00F582C007C006C005C003C002C001C00063
:1001CD00120118D000D001D002888289838AF012E2
:1001DD0006EEC4540FF582120118D003D005D006D7
:1001ED00D0070BBB080040B343A00812010753A072
:1001FD00F71201077488450EF58212011843A00805
:10020D00E51724FF92A922AF82A2A9E433FEEF24C1
:10021D00F850027F078F0E430788C2A953A0F7C07D
:10022D0007C006120107D006D0078F82C006120143
:10023D0018D00643A008EE24FF92A922E58260079C
:10024D007488450EFF80027F8053A0F7C00712010E
:10025D0007D0078F8212011843A00822AF82A2A9EE
:10026D00E433FEC2A9EF60047D0180027D008D089C
:10027D00E51824BF5003751840851809EF700CF56B
:10028D000A758201C006120249D006EE24FF92A91A
:10029D0022AE82AF83C3E49E74029F403A8E198FC3
:1002AD001A9000071206D1E583C313FC7407C39C93
:1002BD00FCB50B04E50D600B8C82C004120214D04A
:1002CD00048C0BE50D60597518407582001202699A
:1002DD00750D00750C40228E19EF24FEF51A900055
:1002ED003F1206D17519FF751A0112068DAE827473
:1002FD0040C39EFEE50B600D758200C00612021410
:10030D00D006750B007401B50D05EEB50C01228EEE
:10031D0018758201C006120269D006750D018E0C8A
:10032D0022E589540F4401F589758CFF758AC6C283
:10033D008DD2A9D2AFD28C22C021C0E0C0F0C08234
:10034D00C083C007C006C005C004C003C002C00101
:10035D00C000C0D075D000758CFF758AC6C28DE502
:10036D00086022E50A7008758201120249800BE5CA
:10037D0009B50A06758200120249050A74C0250ADC
:10038D005003750A00D0D0D000D001D002D003D0D8
:10039D0004D005D006D007D083D082D0F0D0E0D0E5
:0203AD002132FB
:10070E003F065B4F666D7D077F6F777C395E797133
:0300000002004CAF
:100008000000E2FBEAF2802C0000E0FBEAF080242A
:10001800E6B50202EBF62200E2B50202EBF222009C
:10002800E0B50202EBF02230F6E0A88220F5D3EA30
:10003800C6F582228B822230F6E6A88220F5D98086
:01004800CFE8
:0300BA00020049F8
:030049000205BBF2
:1003AF0053B1FD43B20275985075D7E075D6FE75FF
:1003BF008E14438E01228582997E007F00E598205E
:1003CF00E10E0EBE00010FC3EE9430EF947540EDB9
:1003DF005398FD22AD82AE83AFF08D828E838FF066
:1003EF001206EEFC60188C820DBD00010EC007C016
:1003FF0006C0051203C5D005D006D00780DC22E564
:10040F0082FFC4540F90071E93F582C0071203C5D5
:10041F00D007740F5F90071E93F5820203C5AE825B
:10042F00AF837C007D00C3EC9EED9F50147AB07BB0
:10043F00041ABAFF011BEA4B70F70CBC00E80D80E1
:10044F00E52285822585832685F027E52460047CB7
:10045F000080027C0EE522C4540F90070E93852571
:10046F00828526838527F01206B674012525F9E4C7
:10047F003526FAAB27A822740F5890070E9389825E
:10048F008A838BF01206B674022525F9E43526FA15
:10049F00AB27E523C4540F90070E93F582C004C019
:1004AF0003C002C0011200BDA882D001D002D00348
:1004BF00D00489828A838BF0E81206B6740325254F
:1004CF00F9E43526FAAB27A823740F5890070E933B
:1004DF0089828A838BF01206B674052525F9E435D7
:1004EF0026FAAB27EC240EF8E43407FC88828C83C1
:1004FF00E49389828A838BF01206B674042525FD56
:10050F00E43526FEAF2788828C83E4938D828E8319
:10051F008FF01206B674072525FDE43526FEAF27AA
:10052F0088828C83E4938D828E838FF01206B6744B
:10053F00062525FDE43526FEAF2788828C83E493BC
:10054F008D828E838FF00206B6AF825398FD8F99FE
:10055F007E007F00E59820E10E0EBE00010FC3EE76
:10056F009430EF947540ED5398FD22AD82AE83AF7A
:10057F00F05398FE7B007C00E59820E01D0BBB003C
:10058F00010CC3EB9450EC94C340ED8D828E838F9E
:10059F00F074FF1206B6758200228D828E838FF063
:1005AF00E5991206B65398FE758201225395FD43C5
:1005BF00960253B1F353B2F35390FB1203AF90076C
:1005CF002F75F0801203E31201477F008F82C0075F
:1005DF0012055890003075F04012057AE582D00769
:1005EF006006EFB530028004C2008002D200A20084
:1005FF00E433FE8F228530238E2490002875F0403F
:10060F00C007C006120451D006D00790002875F01D
:10061F0040C007C00612016ED006D007EE6005532A
:10062F0090FB800343900490074575F080C007C08E
:10063F00061203E3D006D0078F82C007C00612044C
:10064F000E90074975F0801203E385308212040E75
:10065F00D006D007EE60067D4E7E0780047D547E67
:10066F00077C808D828E838CF0C0071203E3D00746
:0E067F000F90012CC00712042DD0070205DBDE
:10071E003031323334353637383941424344454629
:10072E0000756172742D6C6F6F706261636B2073F4
:10073E00746172740D0A0054583D002052583D00E9
:0E074E00204F4B0D0A00204641494C0D0A0079
:10068D007A10E4FBFCE58225E0F582E58333F58302
:10069D00EB33FBEC33FCEB9519F5F0EC951A4006BA
:0906AD00FCABF0438201DADD220E
:06007B00E4787FF6D8FDD9
:100059007900E94400601B7A0090075C780175A07B
:1000690000E493F2A308B8000205A0D9F4DAF27506
:02007900A0FFE6
:1006B60020F71130F6138883A88220F509F6A8835F
:1006C6007583002280FEF280F5F022E5828519F01E
:1006D600A4C582C0F0851AF0A4D0F025F0C58385A4
:0806E60019F0A42583F583221D
:100081007800E84400600A790175A000E4F309D81A
:10009100FC7800E84400600C7900900001E4F0A3D2
:0400A100D8FCD9FAB4
:0D004C0075813012070AE582600302004949
:1006EE0020F71430F6148883A88220F507E6A88335
:1006FE0075830022E280F7E49322E02275820022C5
:00000001FF
