:1000E300E582FFA2E3E433FEEFC4540125E04206B8
:1000F300EFA2E5E43325E025E04206EF5401C40313
:1001030054F84206EF035401C454F04206EF0303CC
:100113005401C42354E04206EF2323540103035440
:10012300C0420674805F4EF58222751E0074F62568
:100133001E4007E51E04F51E80F322AF827E0053A6
:10014300A0EFEF30E00543A020800353A0DFC007FA
:10015300C00612012D43A01012012DD006D007EFC7
:10016300C313FF0EBE080040D622AE82AF8353A056
:10017300F7C007C00612012D75824012013E43A04D
:100183000812012D53A0F712012D7582C012013EF2
:10019300D006D0077D00ED2EFBE43FFC8B828C83E1
:1001A300E0FA740F5AF582C007C006C005C004C048
:1001B3000312013ED003D0048B828C83E0C4540F1E
:1001C300F58212013ED005D006D0070DBD080040D0
:1001D300C543A00812012D53A0F712012D9000C5AD
:1001E300E04488F58212013E43A0082243A038531D
:1001F300A0F712012D75824012013E43A00812019F
:100203002D53A0F712012D7582C012013E7F007598
:100213008200C00712013E75820012013ED0070F13
:10022300BF080040EA43A00812012D53A0F71201B2
:100233002D75828812013E43A00822E582FF24F82F
:1002430050027F079000C5EFF022AE82E583A2E75C
:10025300CE33CE33CE54017407C39E9000C5F02233
:101F24003F065B4F666D7D077F6F777C395E797105
:011F340007A5
:10026300751E0074D8251E4007E51E04F51E80F395
:1002730022AF825390DFEF600543901080035390C9
:10028300EF1202634390200202635390DF12026372
:10029300E59030E4047F0180027F00439020C00793
:1002A300120263D0078F8222AF825390DF439008FC
:1002B300C007120263D0077E0074015FF582C00796
:1002C300C006120274D006D007EFC313FF0EBE0898
:1002D3000040E67F00AE0874015EF582C007C006E9
:1002E300120274D006D007EEC313F5080FBF08003F
:1002F30040E35390F722E582FFC4540F24F69200A3
:1003030040148F0653060FEE24F692004008C3E50F
:100313001E9F92005004C2008002D200A200E43368
:10032300F5822275080075828E1202AB750800757E
:1003330082801202AB7508007582821202AB7508C7
:10034300007582841202AB7508267582861202AB91
:100353007508087582881202AB75080375828A12C4
:1003630002AB75082675828C1202AB750880758204
:100373008E0202AB900001120419900001E030E7F5
:100383000C1202631202639000011204199000011F
:10039300E030E7099000C67401F0020326900001E3
:1003A300E0FF751E598F821202F9E58260599000B1
:1003B30002E0FF751E598F821202F9E582604890B0
:1003C3000003E0FF751E238F821202F9E582603776
:1003D300900004E0FF6030751E318F821202F9E550
:1003E300826024900005E0FF601D751E128F82124B
:1003F30002F9E5826011900007E0FF751E998F8274
:100403001202F9E58270099000C67402F002032615
:100413009000C6E4F022AE82AF835390DF4390088E
:10042300C007C006120263D006D0077DBF7C0074EC
:10043300015DF582C007C006C005C004120274D076
:1004430004D005D006D007EDC313FD0CBC08004053
:10045300DE4390107D007C007B00C007C006C00512
:10046300C004C00312028DE582D003D004D005D0AE
:1004730006D007600F8BF005F07401800225E0D5EC
:10048300F0FB42040BBB080040D0BD0700500AED4F
:100493002EF582E43FF583ECF00DBD080040B75321
:1004A30090F722AE82AF8375080075828EC007C0B5
:1004B300061202ABD006D0078E828F83E0FD747FD5
:1004C3005DF508758280C007C0061202ABD006D066
:1004D300078E828F83A3E0F508758282C007C0066A
:1004E3001202ABD006D0078E828F83A3A3E0F50858
:1004F300758284C007C0061202ABD006D0078E8275
:100503008F83A3A3A3E0F508758286C007C00612F4
:1005130002ABD006D0078E828F83A3A3A3A3E0F5FB
:1005230008758288C007C0061202ABD006D0078EBA
:10053300828F83A3A3A3A3A3E0F50875828AC007D0
:10054300C0061202ABD006D00774062EF582E43F34
:10055300F583E0F50875828C1202AB75088075820D
:040563008E0202AB57
:011F350000AB
:10056700AE82AF8374072EFCE43FFDE51E901F2487
:10057700938C828D83F074062EFEE43FFFE51F9077
:100587001F24938E828F83F022AE82E583FF30E7AC
:1005970009C3E49EFCE49FFD80048E048F058C064E
:1005A7008D077D00C3EE940AEF9400400BEE24F60E
:1005B700FEEF34FFFF0D80ECEDFF249C50027F63BC
:1005C7008F8222AF827E00EE250EF582E4350FF58D
:1005D70083E4F00EBE080040EEBF0102800302066E
:1005E700ECAD0EAE0FAB09AC0A74042BF510E43C6E
:1005F700F511851082851183E0C4540F901F249351
:100607008D828E83F074012DF8E43EFA8510828581
:100617001183E0F9740F59901F249388828A83F01D
:1006270074022DF510E43EF51174032BF512E43C2A
:10063700F513851282851383E0C4540F901F24930A
:10064700F582C006C005C004C0031200E3A982D02A
:1006570003D004D005D006851082851183E9F07494
:10066700032DF9E43EFA851282851383E0F8740FAF
:1006770058901F249389828A83F074072DF512E41A
:100687003EF51374062BF510E43CF51185108285B1
:100697001183E0C4540F901F24938512828513831E
:1006A700F074062DF9E43EFA851082851183E0F88F
:1006B700740F58901F249389828A83F074052DF94B
:1006C700E43EFA8B828C83A3A3A3A3A3E0FC740F5D
:1006D7005C901F249389828A83F08D828E83A3A3E3
:1006E700A3A3E4F022BF020280030207DCAE0BAF34
:1006F7000CC374229E747C8FF063F08095F04004E5
:100707007EFA7F00900014E060498E04EFA2E713A1
:10071700CC13CCFDEC2EFCED3FFD8E02EFA2E713D0
:10072700CA13CAA2E713CA13CAFBEA2CFCEB3DFDA6
:100737008E02EFC4CAC4540F6ACA540FCA6ACA30B9
:10074700E30244F0FBEA2CFCEB3DFD74402CFE7405
:10075700013DFFEF33E433FD8E828F83C005120521
:1007670090AF82D005AC0EAE0FED60027440FD8CE9
:10077700828E83EDF074012CFBE43EFD8F0275F051
:100787000AEA84901F24938B828D83F074022CFBDA
:10079700E43EFD75F00AEF84E5F0901F2493F5829F
:1007A700C006C005C004C0031200E3AF82D003D067
:1007B70004D005D0068B828D83EFF074032CFFE401
:1007C7003EFE900014E060047D7180027D398F82C7
:1007D7008E83EDF022AE0EAF0FAC09AD0A74022C7A
:1007E700FAE43DFB8A828B83E0C4540F901F249365
:1007F7008E828F83F074012EF8E43FF98A828B830F
:10080700E0FA740F5A901F2493FB43038088828970
:1008170083EBF074022EF512E43FF51374012CF804
:10082700E43DF988828983E0C4540F901F2493FB29
:1008370074804BF582C007C006C005C004C001C064
:10084700001200E3AB82D000D001D004D005D0065F
:10085700D007851282851383EBF074032EFAE43FE9
:10086700FB88828983E0F8740F58901F24938A824B
:100877008B83F08C828D83E0FBC4540FF51E740FBD
:100887005BF51F8E828F83C005C004120567D004F5
:10089700D005E50D705EC37422950B747C850CF052
:1008A70063F08095F0920140067EFA7F008004AEE7
:1008B7000BAF0C8E828F83120590AF827405250EC5
:1008C700FBE4350FFE8F0275F00AEA84901F24932C
:1008D7008B828E83F07404250EFBE4350FFE75F0D2
:1008E7000AEF84E5F0901F2493FF4307808B828EE5
:1008F70083EFF0227405250EFEE4350FFF74032CF9
:10090700FCE43DFD8C828D83E0C4540F901F24933B
:100917008E828F83F07404250EFEE4350FFF8C82E0
:100927008D83E0FC740F5C901F24938E828F83F07D
:1009370022751815751900751A01900000120A4BD7
:10094700900015E0FFBF560F751808751900751A46
:100957000D900001020A4B22900000120A699000D4
:10096700157456F0751B15751C00751D0190000058
:10097700120A5A751B08751C00751D0D900001029F
:100987000A5A9000087401F0900009E4F090000AF8
:100997007407F090000BE4F090000C7408F09000DE
:1009A7000D74FFF090000EF090000FF0900010F023
:1009B7009000117405F09000127401F0900013E498
:1009C700F0900014F022751E0074D8251E4007E52C
:1009D7001E04F51E80F322AE82AF8375C7847D00A7
:1009E700C3ED951450578D047B00EC2EFCEB3FFABA
:1009F700743F5AF5C38CC4E517600DED2515F582D4
:100A0700E43516F583E0F5C2E51760047C02800241
:100A17007C018CC575C65A75C6A5C007C006C0053A
:100A27001209CDD005D006D007E517700DED2515B5
:100A3700F582E43516F583E5C2F00D80A375C7008E
:100A470075C50022851A148518158519167517009E
:100A57000209DE851D14851B15851C1675170102F5
:100A670009DEAE82AF8375C7848F05743F5DF5C31A
:100A77008EC475C50375C65A75C6A51209CD75C747
:050A87000075C500220E
:0300C5007524009F
:100A8C00E5827010E5B0A2E3E433B401009202E415
:100A9C0033F58222E5B003035401B401009202E461
:100AAC0033F58222AF8274FA2523500122E5217599
:100ABC00F002A42416FD740035F0FE8D828E83EFB7
:100ACC00F08D828E83A3E51EF0052174FA2521504A
:100ADC000375210005232275230075220075210062
:100AEC00900027E4F0900022F0900028F090002372
:100AFC00F0900029F0900024F090002AF09000254E
:100B0C00F090002BF0900026F0F52422E582700383
:100B1C00020BC0AE25AF268E048F058C828D83E030
:100B2C00704A8C828D837401F08E828F83A3E4F0E3
:100B3C0074042EFAE43FFB8A828B83E0602E8A8257
:100B4C008B83E4F0751E02852782C007C006C005A2
:100B5C00C004120AB0D004D005D006D0078C828D08
:100B6C0083E4F08E828F83A3A3A304F074012EFC84
:100B7C00E43FFD8C828D83E0FB0B8C828D83EBF04C
:100B8C0074032EFEE43FFF8E828F83E06001228C83
:100B9C00828D83E0FCBC6400500122751E03852706
:100BAC0082C007C006120AB0D006D0078E828F838F
:100BBC007401F022AE25AF268E048F058C828D83B6
:100BCC00E0602E8C828D83E4F08E828F83A3A3F061
:100BDC0074032EFCE43FFD8C828D83E060078C82D5
:100BEC008D83E4F0228E828F83A3A3A3A37401F0E0
:100BFC002274042EFCE43FFD8C828D83E060307403
:100C0C00022EFEE43FFF8E828F83E0FB0B8E828FE1
:100C1C0083EBF0BB0F004017751E01852782C005C2
:100C2C00C004120AB0D004D0058C828D83E4F0226B
:100C3C00758200120A8CAF82758201C007120A8C71
:100C4C00AE82D007EF6018EE601575240190002776
:100C5C00E4F0900022F090002BF0900026F022E5BA
:100C6C00246009EF7005EE7002F5242275252275BB
:100C7C0026007527008F82C006120B18D00674054B
:100C8C002422F525E43400F5267527018E82020B0B
:100C9C0018AE82AF83E5237003F582228E048F0594
:100CAC00E52275F002A42416FA740035F0FB8A8252
:100CBC008B83E08C828D83F00EBE00010F8A828BB9
:100CCC0083A3E08E828F83F0052274FA25225003D1
:0D0CDC0075220015237582012285248222D5
:0400000002006C325C
:01000B0032C2
:0100130032BA
:01001B0032B2
:030023000212EBDB
:100028000000E2FBEAF2802C0000E0FBEAF080240A
:10003800E6B50202EBF62200E2B50202EBF222007C
:10004800E0B50202EBF02230F6E0A88220F5D3EA10
:10005800C6F582228B822230F6E6A88220F5D98066
:01006800CFC8
:1000C800754400754500754601754A00754B007505
:0B00D8004C00754D00754E00020069E1
:030069000215B9C4
:100CE900AE82AF837C007D00C3EC9EED9F50147AE9
:100CF900B07B041ABAFF011BEA4B70F70CBC00E881
:100D09000D80E52253A0FD900096120CE943A00244
:100D1900900078020CE9AF8274075F4488F5BCE55E
:100D2900BC30E4FB53BCEFAEBD7F00EE2EFEEF33CB
:100D3900FFEE2EFEEF33FFACBE5304037D00EC4EF5
:100D4900F582ED4FF58322A9827F0074F6251E50A6
:100D590009E51E24F6F51E0F80F1A707E904F8A698
:100D69001E22E582FFC4540FFE53060F53070FEEF0
:100D7900C40354F8FDEE2E2D2FF58222AE82AF83E7
:100D8900E0F582C007C006120D6BAD82D006D00710
:100D99007C000DBD00010CAA287B00C3EA9DEB6411
:100DA900808CF063F08095F050027D008D1E758275
:100DB90029C007C006120D50D006D007E529C45432
:100DC900F0FDE52A42058E828F83EDF022AE82AFD7
:100DD90083A3A3A3A3E0F582C007C006120D6BADE0
:100DE90082D006D007BD022274062EF582E43FF5B3
:100DF90083E0FCC4540F25E0FB53040FEC2B540390
:100E090070047C1D80257C1C8021ED24F892034010
:100E19000CED30E0047B1F80107B1E800CED30E070
:100E2900047D1E80027D1F8D038B0474032EFEE456
:100E39003FFF8E828F83E0F582C007C006C004128F
:100E49000D6BE582D004D006D00704FDC3EC9D509C
:100E5900027D018D1E75822BC007C006120D50D070
:100E690006D007E52BC454F0FDE52C42058E828F90
:100E790083EDF022AE82AF83900009E070078E8285
:100E89008F8302024D90000AE0FF1F8F8202023E0B
:100E9900AE82AF837D00ED2EF582E43FF583E4F069
:100EA9000DBD080040F0E52E704C852D1E75822F72
:100EB900C007C006120D50D006D0078E828F8374EA
:100EC90018F074012EFCE43FFDE52F901F24938C4C
:100ED900828D83F074022EFEE43FFFE530901F24DB
:100EE90093F582C007C0061200E3AD82D006D00791
:100EF9008E828F83EDF022858235858336AC31ADC4
:100F0900328C828D83A3A3A3E0FBC4540FFA53024E
:100F19000F53030F8C828D83E0F9C4540FF85300EB
:100F29000F53010F7401B533128C828D83A3A3A3D0
:100F3900A3E0FFC4540FFA740F5FFBE53370137419
:100F4900062CF582E43DF583E0FFC4540FF8740FD5
:100F59005FF97403B5330F8C828D83A3A3A3A3A375
:100F6900E0FF740F5FFAAE35AF367404B53303D3BF
:100F79008001C392045009E534600575370080107B
:100F89008C828D83A3A3E0C4540F901F2493F5375B
:100F9900C001A9378E828F83E9F074012535F538B0
:100FA900E43536F539D001300408E53460047F00B2
:100FB90080108C828D83A3A3E0FE740F5E901F24A2
:100FC90093FF853882853983EFF074022535FEE475
:100FD9003536FF7405B53303D38001C39204500934
:100FE900E5346005753800800F8C828D83A3E0C4D9
:100FF900540F901F2493F538C001853882C007C06B
:1010090006C005C004C003C002C0001200E3A982E3
:10101900D000D002D003D004D005D006D0078E82EC
:101029008F83E9F074032535F538E43536F539D081
:1010390001300408E53460047F00800F8C828D83C1
:10104900A3E0FE740F5E901F2493FF8538828539D3
:1010590083EFF07401B53302800C7402B53302805A
:10106900057403B53304E5347004C2048002D20464
:10107900A204E433FFE53360057406B53304E534AF
:101089007004C2048002D204A204E433FE7405256C
:1010990035FCE43536FDEF60057538008007EA90C8
:1010A9001F2493F538AA388C828D83EAF0740425BD
:1010B90035FCE43536FDEF70057403B533047F0064
:1010C9008006EB901F2493FF8C828D83EFF07407C9
:1010D9002535FDE43536FFEE60047C008006E89096
:1010E9001F2493FC8D828F83ECF074062535FDE473
:1010F9003536FFEE60047E008006E9901F2493FEDA
:101109008D828F83EEF02285823C85833D853A1E50
:1011190075823E120D50E53E901F2493853C8285D1
:101129003D83F07401253CFCE4353DFDE53F901F0E
:101139002493FB4303808C828D83EBF0853B1E75E2
:10114900823E120D507402253CFCE4353DFDE53E1E
:10115900901F2493FB74804BF582C005C0041200D4
:10116900E3AB82D004D0058C828D83EBF074032528
:101179003CFCE4353DFDE53F901F24938C828D8333
:10118900F07404253CFCE4353DFD7405253CFAE486
:10119900353DFB7406253CFEE4353DFF853C8285E3
:1011A9003D83A3A3A3A3A3A3A3E4F08E828F83F01B
:1011B9008A828B83F08C828D83F022AE82AF83EE9C
:1011C9004F6009C3EE94FFEF9403400490FC192289
:1011D900EF24FEFF8E04C42354E0CCC423CC6CCC92
:1011E90054E0CC6CFDEE2EFAEF33FBEE2AFEEF3B1A
:1011F900FFECC39EFCED9FFD90000BE0FF3395E0F3
:10120900FEEDC403CCC40354076CCC5407CC6CCC9E
:1012190030E20244F8FD74FAC39CFCE49DFD8F02A0
:10122900EEC40354F8CAC403CA6ACA54F8CA6AFBAA
:10123900EF2FFFEE33FEEF2AFAEE3BFBEA2CF582A5
:10124900EB3DF5832275985075D7E075D6FE758EFE
:1012590014438E01D2ACD2AF22AF82C2AC8F99E5D2
:101269009830E1FB5398FDD2AC22AF82E5426FFE84
:101279007582AAC007C006121262758255121262DF
:10128900D006D0078F82C0061212628542821212DE
:1012990062D0067F00C3EF9542502CEF2540FCE455
:1012A9003541FD8C828D83E0F582C007C006C005FB
:1012B900C004121262D004D005D006D0078C828DEA
:1012C90083E062060F80CE8E82021262AF829000A6
:1012D9002CE543F075402C7541007542018F82025F
:1012E9001273C0E0C082C083C007C0D075D000E5CA
:1012F9009830E01D9000C7E0242DF582E43400F514
:1013090083E599F09000C7E004541FF05398FE80DC
:10131900035398FDD0D0D007D083D082D0E032AE2D
:1013290082AF83E0900053F08E828F83A3E0900018
:1013390051F08E828F83A3A3E0900050F08E828FAC
:1013490083A3A3A3E0900052F08E828F83A3A3A36B
:10135900A3E090004FF08E828F83A3A3A3A3A3E001
:1013690090004EF074062EF582E43FF583E0FD53BC
:10137900057F90004DEDF0C007C0061204A6D00607
:10138900D00775460174072EF582E43FF583E09096
:10139900000CF022AE82AF837D00ED2408FBE4341B
:1013A90000FCED2EF582E43FF583E08B828C83F01F
:1013B9000DBD0D0040E402095FAF82BF81028029A3
:1013C900BF82028039BF83028049BF87028075BF0F
:1013D90088028055BF890302149FBF8A028079BFA2
:1013E9008F0280012275440122E54470012274F8BC
:1013F9002549400122854782854883021328E5440F
:1014090070012274F325494001228547828548836A
:1014190002139DE54470012274FF2549400122858C
:101429004782854883E0F54522E54470012274FC32
:101439002549400122854782854883A3A3A3E090DB
:1014490000C9F022E5447001227540087541007514
:10145900420D758282021273E54470012274FF25E0
:1014690049400122854782854883E0FFBF01030285
:101479000D0DBF02028003BF03109000547405F0E4
:1014890090005574F0F0E4A3F022900054E4F09039
:101499000055F0A3F022E544604F74FF25495049F7
:1014A900AE47AF488E828F83E0FD70069000CAE494
:1014B900F022BD012274FD2549501C9000CA740117
:1014C900F08E828F83A3E09000CBF08E828F83A36E
:1014D900A3E09000CCF022BD020F9000547404F0F8
:1014E90090005574F0F0E4A3F0229000C8E0FF905A
:1014F90000C7E0FEEFB50601229000C8E0242DF5F3
:1015090082E43400F583E0FF9000C8E0FE04541F34
:10151900F0E54A24FA40D3E54A75F003A490152A68
:101529007302153C02154402155102155A02157D24
:101539000215A0BFAAB4754A0180AFBF55047E0247
:1015490080027E008E4A80A28F4B8F4E754A03809F
:1015590099EFF54C624E754D00E54C7005754A05DD
:101569008088E54C24C35006754A000214F3754A75
:10157900040214F3AE4D054DEE2457F582E4340010
:10158900F583EFF0EF624EC3E54D954C500302141D
:10159900F3754A050214F3EFB54E0F7547577548B1
:1015A90000854C49854B821213C2754A000214F317
:1015B9009000AFE4F09000B0F09000B1F09000B26C
:1015C900F09000B3F09000B4F09000B514F09000E2
:1015D900B6E4F09000B7F0A3F09000B9F09000BA2B
:1015E900F09000BBF09000BCF09000BDF09000BE00
:1015F90014F09000BFE4F09000C0F0A3F09000C296
:10160900F09000C3F09000C4F05395FD4396024357
:10161900A00253B1F353B2F3439004439D034391A2
:10162900035392FC75BC80900001120CE99000C82C
:10163900120CE91201EF1209891209389001F4120A
:101649000CE9120377120AE312124E90009F12045A
:101659001990009FE030E7037546007F147E00C0B3
:1016690007C006120C3C1214F3D006D0079000AD47
:10167900C007C006120C9DE582D006D00770030290
:101689001A859000B6740AF0900054E0FDE0606895
:101699009000ADE07028900054E4F0900055F0A35C
:1016A900F09000B9F09000B7F0A3F043A002C00792
:1016B900C006120D0D120D0DD006D00780AF900097
:1016C900B9EDF0900011E0FD7C008D037A00ECC4C7
:1016D90054F0CDC4CD6DCD54F0CD6DFC9000B7EA7A
:1016E900C39DF0EB9CA3F0900054E4F0900055F0FA
:1016F900A3F043A0020216769000CAE0604C900065
:10170900ADE0701C9000AEE0FDBD0114754300759D
:101719008205C007C0061212D5D006D00702167678
:101729009000ADE060030216769000AEE0FDBD03C7
:10173900028003021676754301758205C007C0064B
:101749001212D5D006D0070216769000B3E0703792
:101759009000B1E070319000ADE0FDBD012990002D
:10176900AEE0FDBD03219000BAE060047D00800277
:101779007D019000BAEDF09000BBE4F09000BCF060
:101789009000BDF00216769000BAE0FDE0605A9034
:1017990000ADE0FCBC01299000AEE0FBBB0121BD1E
:1017A90001047D0280027D019000BAEDF0BD0202C4
:1017B900800302167690009FE09000BDF002167635
:1017C900EC60030216769000AEE0FDBD01028003D5
:1017D9000216769000BA7401F09000BBE4F0900014
:1017E900BCF09000BDF00216769000B1E0700302E3
:1017F90018859000ADE070379000AEE0FDBD012F77
:101809009000B1E4F09000B2E0FD7003FC80027C2E
:1018190001900009ECF0ED60089000B2E090000A38
:10182900F0C007C00612095FD006D00702167690ED
:1018390000ADE0FDBD010280030216769000AEE026
:10184900FDBD010280030216769000B2E0FDBD08DD
:1018590000920540047C0080030D8D049000B2ECD9
:10186900F0EC7003FD80027D01900009EDF0EC7051
:101879000302167690000AECF00216769000B3E0A7
:1018890070030219B49000ADE070339000AEE0FD32
:10189900BD012B9000B4E02401F0E024F9400302DB
:1018A90016769000B3E4F09000A6C007C0061204B3
:1018B900A6754601120D0DD006D0070216769000C6
:1018C900ADE0FDBD010280030216769000AEE0FD99
:1018D900BD010280030216769000B4E0FD24F950A0
:1018E90003021676ED2D2D9018F4730219090219C9
:1018F9003002195302196402197802198C0219A0CD
:101909007528639000ACC007C006120D85D006D0BB
:10191900079000ACE0FDBD2600400302167690005A
:10192900AC7426F002167675280C9000AAC007C080
:1019390006120D85D006D0079000AAE060030216B2
:10194900769000AA7401F00216769000A6C007C02E
:1019590006120DD6D006D007021676752806900015
:10196900ABC007C006120D85D006D00702167675E2
:1019790028179000A8C007C006120D85D006D00709
:1019890002167675283B9000A7C007C006120D8580
:10199900D006D00702167675283B9000A6C007C06E
:1019A90006120D85D006D0070216769000ADE070BC
:1019B900249000AEE0FDBD011C9000B17401F090CF
:1019C9000009E07003FD800590000AE0FD9000B277
:1019D900EDF00216769000ADE070249000AEE0FDC7
:1019E900BD031C9000B37401F09000B4E4F09000C2
:1019F900A6C007C006120419D006D00702167690B1
:101A090000ADE0702E9000AEE0FDBD02269000BF53
:101A19007401F09000C0740DF0E4A3F0F540F541B5
:101A2900F542758201C007C006121273D006D007AD
:101A39000216769000ADE0FDBD0103ED8001E4FDE5
:101A490060109000AEE0FCBC02089000AFE4F00228
:101A59001676ED70030216769000AEE0FDBD010228
:101A690080030216769000AFE0FDBD020050030D21
:101A790080027D009000AFEDF002167690000AC05A
:101A890007C006120CE9D006D0070EBE1800500395
:101A9900021668C007120CE5E582D0076030900095
:101AA900C4E02401F0E0FEBE1500402B9000C3E025
:101AB90070259000C37401F0E4F540F541F54275D5
:101AC9008204C007121273120D0DD007800990000D
:101AD900C4E4F09000C3F0C0071214F3D0079000DB
:101AE900C2E02401F0E0FEBE040040159000C2E40B
:101AF900F0F540F541F542758202C007121273D024
:101B090007EF6013DF11E544700DC007120D0D12C8
:101B19000D0D120D0DD007758200C007120D1F1291
:101B29000E7D758201120D1F1211C4AD82AE839014
:101B3900009FC006C005120419D005D006D0079031
:101B4900009FE0FC9000BEE0FBECB503028013901F
:101B590000BEECF09000B6E0FCE06006EC149000EA
:101B6900B6F090000DE0FC90000EE0FB90000FE055
:101B7900FA900010E0F54FBCFF03D38001C3920532
:101B89005003021C0EBAFF03D38001C392054075AE
:101B9900EA9C920540379000A1E0F8C3EC98400E0A
:101BA900E8B5041C9000A0E0C39B92054012C3E86D
:101BB9009A4011E8B502099000A0E0C3954F40048E
:101BC900C2058002D205A205E433F980359000A14F
:101BD900E0F8C3EC984024E8B5040A9000A0E0C3FB
:101BE9009B92055016C3E89A4011E8B50209900086
:101BF900A0E0C3954F4004C2058002D205A205E4C6
:101C090033F9E97004C2058002D205A205E433FC68
:101C19009000A0E0FB9000B5E0FAEBB5020280214C
:101C29009000B5EBF0900008E0FBBB01149000AF09
:101C3900E0FBBB020050030B80027B009000AFEB7E
:101C4900F0900054E0604E900055E0FAA3E0FB905C
:101C59000055E0F5F0A3E045F0607C1ABAFF011BDE
:101C6900900055EAF0EBA3F0900055E0FAA3E0FBF1
:101C790074035AF87900C3E89402E99400500553B3
:101C8900A0FD800343A002EA4B704C900054E4F09D
:101C990043A00280429000B7E0FAA3E0FB9000B7AE
:101CA900E0F5F0A3E045F0602E1ABAFF011B9000A1
:101CB900B7EAF0EBA3F09000B7E0F5F0A3E045F048
:101CC90070159000B9E0900054F090005574F0F050
:101CD900E4A3F09000B9F09000BAE0FBBB024B908E
:101CE900009FE0FB9000BDE0FAEBB50202803B905B
:101CF90000BDEBF09000BBE02401F0E0FBBB3C0031
:101D0900400C9000BBE4F09000BCE02401F090008E
:101D1900BCE0FBBB640040129000BC7463F090000F
:101D2900BB743BF09000BA7401F09000BFE06028EA
:101D39009000C0E0FAA3E0FB9000C0E0F5F0A3E05A
:101D490045F0600F1ABAFF011B9000C0EAF0EBA33F
:101D5900F080059000BFE4F0900012E0600B74FE83
:101D6900254550055390FB80034390049000B0E053
:101D790063E001F09000B1E0601D9000B2E0F52D44
:101D89009000B0E0F52E900097C007C004120E999C
:101D9900D004D007021EF19000B3E060237531A68C
:101DA9007532009000B4E0F5339000B0E0F534905E
:101DB9000097C007C004120F00D004D007021EF11B
:101DC9009000CAE0601D9000CBE0F53A9000CCE0AD
:101DD900F53B900097C007C004121110D004D0073A
:101DE900021EF19000BAE0601D9000BCE0F53A9047
:101DF90000BBE0F53B900097C007C004121110D05A
:101E090004D007021EF19000BFE07003021E9CE59A
:101E1900447003FA8015E54560099000C9E0F87936
:101E290000800478947901880289037B00BA6400F0
:101E390040098A01E9249CFA0B80F27900BA0A0068
:101E490040098A00E824F6FA0980F2900097747331
:101E5900F0EB901F2493900098F0E9901F2493F5DC
:101E690082C007C004C0021200E3AB82D002D004D2
:101E7900D007900099EBF0EA901F249390009AF014
:101E890090009EE4F090009DF090009CF090009BE3
:101E9900F08055E54660329000AFE0FB900013E01A
:101EA900B40100B39205E433F50D750E97750F0073
:101EB90075099F750A008D0B8E0C8B82C007C004B3
:101EC9001205CAD004D007801F9000B0E0FE7D0043
:101ED900ED2497FAE43400FBEE6002747F8A828B6A
:101EE90083F00DBD080040E8EC601F9000B6E0707B
:101EF90019900054E07013FEEE2497F582E4340043
:101F0900F583E4F00EBE080040EE900097C007127A
:071F1900016DD007021666FE
:061F3600000000000000A5
:06009B00E478FFF6D8FD39
:100079007908E94400601B7A01901F3478C575A09E
:1000890000E493F2A308B8000205A0D9F4DAF275E6
:02009900A0FFC6
:1000A1007800E84400600A790175A000E4F309D8FA
:1000B100FC78C4E84400600C7901900001E4F0A3ED
:0400C100D8FCD9FA94
:0D006C0075814F121F20E5826003020069BC
:041F200075820022A4
:00000001FF
