:1000E300E582FFA2E3E433FEEFC4540125E04206B8
:1000F300EFA2E5E43325E025E04206EF5401C40313
:1001030054F84206EF035401C454F04206EF0303CC
:100113005401C42354E04206EF2323540103035440
:10012300C0420674805F4EF58222751E0074F62568
:100133001E4007E51E04F51E80F322AF827E0053A6
:10014300A0EFEF30E00543A020800353A0DFC007FA
:10015300C00612012D43A01012012DD006D007EFC7
:10016300C313FF0EBE080040D622AE82AF8353A056
:10017300F7C007C00612012D75824012013E43A04D
:100183000812012D53A0F712012D7582C012013EF2
:10019300D006D0077D00ED2EFBE43FFC8B828C83E1
:1001A300E0FA740F5AF582C007C006C005C004C048
:1001B3000312013ED003D0048B828C83E0C4540F1E
:1001C300F58212013ED005D006D0070DBD080040D0
:1001D300C543A00812012D53A0F712012D9000EE84
:1001E300E04488F58212013E43A0082243A038531D
:1001F300A0F712012D75824012013E43A00812019F
:100203002D53A0F712012D7582C012013E7F007598
:100213008200C00712013E75820012013ED0070F13
:10022300BF080040EA43A00812012D53A0F71201B2
:100233002D75828812013E43A00822E582FF24F82F
:1002430050027F079000EEEFF022AE82E583A2E733
:10025300CE33CE33CE54017407C39E9000EEF0220A
:101F8C003F065B4F666D7D077F6F777C395E79719D
:011F9C00073D
:10026300751E0074D8251E4007E51E04F51E80F395
:1002730022AF825390DFEF600543901080035390C9
:10028300EF1202634390200202635390DF12026372
:10029300E59030E4047F0180027F00439020C00793
:1002A300120263D0078F8222AF825390DF439008FC
:1002B300C007120263D0077E0074015FF582C00796
:1002C300C006120274D006D007EFC313FF0EBE0898
:1002D3000040E67F00AE0874015EF582C007C006E9
:1002E300120274D006D007EEC313F5080FBF08003F
:1002F30040E35390F722E582FFC4540F24F69200A3
:1003030040148F0653060FEE24F692004008C3E50F
:100313001E9F92005004C2008002D200A200E43368
:10032300F5822275080075828E1202AB750800757E
:1003330082801202AB7508007582821202AB7508C7
:10034300007582841202AB7508267582861202AB91
:100353007508087582881202AB75080375828A12C4
:1003630002AB75082675828C1202AB750880758204
:100373008E0202AB900001120419900001E030E7F5
:100383000C1202631202639000011204199000011F
:10039300E030E7099000EF7401F0020326900001BA
:1003A300E0FF751E598F821202F9E58260599000B1
:1003B30002E0FF751E598F821202F9E582604890B0
:1003C3000003E0FF751E238F821202F9E582603776
:1003D300900004E0FF6030751E318F821202F9E550
:1003E300826024900005E0FF601D751E128F82124B
:1003F30002F9E5826011900007E0FF751E998F8274
:100403001202F9E58270099000EF7402F0020326EC
:100413009000EFE4F022AE82AF835390DF43900865
:10042300C007C006120263D006D0077DBF7C0074EC
:10043300015DF582C007C006C005C004120274D076
:1004430004D005D006D007EDC313FD0CBC08004053
:10045300DE4390107D007C007B00C007C006C00512
:10046300C004C00312028DE582D003D004D005D0AE
:1004730006D007600F8BF005F07401800225E0D5EC
:10048300F0FB42040BBB080040D0BD0700500AED4F
:100493002EF582E43FF583ECF00DBD080040B75321
:1004A30090F722AE82AF8375080075828EC007C0B5
:1004B300061202ABD006D0078E828F83E0FD747FD5
:1004C3005DF508758280C007C0061202ABD006D066
:1004D300078E828F83A3E0F508758282C007C0066A
:1004E3001202ABD006D0078E828F83A3A3E0F50858
:1004F300758284C007C0061202ABD006D0078E8275
:100503008F83A3A3A3E0F508758286C007C00612F4
:1005130002ABD006D0078E828F83A3A3A3A3E0F5FB
:1005230008758288C007C0061202ABD006D0078EBA
:10053300828F83A3A3A3A3A3E0F50875828AC007D0
:10054300C0061202ABD006D00774062EF582E43F34
:10055300F583E0F50875828C1202AB75088075820D
:040563008E0202AB57
:011F9D000043
:10056700AE82AF8374072EFCE43FFDE51E901F8C1F
:10057700938C828D83F074062EFEE43FFFE51F9077
:100587001F8C938E828F83F022AE82E583FF30E744
:1005970009C3E49EFCE49FFD80048E048F058C064E
:1005A7008D077D00C3EE940AEF9400400BEE24F60E
:1005B700FEEF34FFFF0D80ECEDFF249C50027F63BC
:1005C7008F8222AF827E00EE250EF582E4350FF58D
:1005D70083E4F00EBE080040EEBF0102800302066E
:1005E700ECAD0EAE0FAB09AC0A74042BF510E43C6E
:1005F700F511851082851183E0C4540F901F8C93E9
:100607008D828E83F074012DF8E43EFA8510828581
:100617001183E0F9740F59901F8C9388828A83F0B5
:1006270074022DF510E43EF51174032BF512E43C2A
:10063700F513851282851383E0C4540F901F8C93A2
:10064700F582C006C005C004C0031200E3A982D02A
:1006570003D004D005D006851082851183E9F07494
:10066700032DF9E43EFA851282851383E0F8740FAF
:1006770058901F8C9389828A83F074072DF512E4B2
:100687003EF51374062BF510E43CF51185108285B1
:100697001183E0C4540F901F8C93851282851383B6
:1006A700F074062DF9E43EFA851082851183E0F88F
:1006B700740F58901F8C9389828A83F074052DF9E3
:1006C700E43EFA8B828C83A3A3A3A3A3E0FC740F5D
:1006D7005C901F8C9389828A83F08D828E83A3A37B
:1006E700A3A3E4F022BF020280030207DCAE0BAF34
:1006F7000CC374229E747C8FF063F08095F04004E5
:100707007EFA7F0090003DE060498E04EFA2E71378
:10071700CC13CCFDEC2EFCED3FFD8E02EFA2E713D0
:10072700CA13CAA2E713CA13CAFBEA2CFCEB3DFDA6
:100737008E02EFC4CAC4540F6ACA540FCA6ACA30B9
:10074700E30244F0FBEA2CFCEB3DFD74402CFE7405
:10075700013DFFEF33E433FD8E828F83C005120521
:1007670090AF82D005AC0EAE0FED60027440FD8CE9
:10077700828E83EDF074012CFBE43EFD8F0275F051
:100787000AEA84901F8C938B828D83F074022CFB72
:10079700E43EFD75F00AEF84E5F0901F8C93F58237
:1007A700C006C005C004C0031200E3AF82D003D067
:1007B70004D005D0068B828D83EFF074032CFFE401
:1007C7003EFE90003DE060047D7180027D398F829E
:1007D7008E83EDF022AE0EAF0FAC09AD0A74022C7A
:1007E700FAE43DFB8A828B83E0C4540F901F8C93FD
:1007F7008E828F83F074012EF8E43FF98A828B830F
:10080700E0FA740F5A901F8C93FB43038088828908
:1008170083EBF074022EF512E43FF51374012CF804
:10082700E43DF988828983E0C4540F901F8C93FBC1
:1008370074804BF582C007C006C005C004C001C064
:10084700001200E3AB82D000D001D004D005D0065F
:10085700D007851282851383EBF074032EFAE43FE9
:10086700FB88828983E0F8740F58901F8C938A82E3
:100877008B83F08C828D83E0FBC4540FF51E740FBD
:100887005BF51F8E828F83C005C004120567D004F5
:10089700D005E50D705EC37422950B747C850CF052
:1008A70063F08095F0920140067EFA7F008004AEE7
:1008B7000BAF0C8E828F83120590AF827405250EC5
:1008C700FBE4350FFE8F0275F00AEA84901F8C93C4
:1008D7008B828E83F07404250EFBE4350FFE75F0D2
:1008E7000AEF84E5F0901F8C93FF4307808B828E7D
:1008F70083EFF0227405250EFEE4350FFF74032CF9
:10090700FCE43DFD8C828D83E0C4540F901F8C93D3
:100917008E828F83F07404250EFEE4350FFF8C82E0
:100927008D83E0FC740F5C901F8C938E828F83F015
:100937002275183E751900751A01900000120AA158
:1009470090003EE0FFBF560F751808751900751A1D
:1009570036900001020AA122900000120ABF9000FF
:100967003E7456F0751B3E751C00751D0190000006
:10097700120AB0751B08751C00751D369000010220
:100987000AB09000087401F0900009E4F090000AA2
:100997007407F090000BE4F0FFEF75F003A4240C4C
:1009A700FDE43400FE8D828E83E4F08D828E83A376
:1009B700F08D828E83A3A3F00FBF030040DB90006E
:1009C700157408F090001674FFF0900017F090006F
:1009D70018F0900019F090001AE4F090001E14F03F
:1009E70090001FF0900020F0900021F090001B7401
:1009F70005F090001C7401F090001DE4F0FFEF2457
:100A070022F582E43400F583E4F00FBF1A0040EECC
:100A170090003C7405F090003DE4F022751E0074D0
:100A2700D8251E4007E51E04F51E80F322AE82AFCF
:100A37008375C7847D00C3ED951450578D047B00E3
:100A4700EC2EFCEB3FFA743F5AF5C38CC4E51760F4
:100A57000DED2515F582E43516F583E0F5C2E517AA
:100A670060047C0280027C018CC575C65A75C6A5D8
:100A7700C007C006C005120A23D005D006D007E577
:100A870017700DED2515F582E43516F583E5C2F0EF
:100A97000D80A375C70075C50022851A1485181522
:100AA700851916751700020A34851D14851B1585CF
:100AB7001C16751701020A34AE82AF8375C7848F7F
:100AC70005743F5DF5C38EC475C50375C65A75C6F3
:0B0AD700A5120A2375C70075C5002298
:0300C5007524009F
:100AE200E5827010E5B0A2E3E433B401009202E4BF
:100AF20033F58222E5B003035401B401009202E40B
:100B020033F58222AF8274FA2523500122E5217542
:100B1200F002A4243FFD740035F0FE8D828E83EF37
:100B2200F08D828E83A3E51EF0052174FA252150F3
:100B3200037521000523227523007522007521000B
:100B4200900050E4F090004BF0900051F090004C77
:100B5200F0900052F090004DF0900053F090004E53
:100B6200F0900054F090004FF0F52422E5827003DB
:100B7200020C16AE25AF268E048F058C828D83E083
:100B8200704A8C828D837401F08E828F83A3E4F08D
:100B920074042EFAE43FFB8A828B83E0602E8A8201
:100BA2008B83E4F0751E02852782C007C006C0054C
:100BB200C004120B06D004D005D006D0078C828D5B
:100BC20083E4F08E828F83A3A3A304F074012EFC2E
:100BD200E43FFD8C828D83E0FB0B8C828D83EBF0F6
:100BE20074032EFEE43FFF8E828F83E06001228C2D
:100BF200828D83E0FCBC6400500122751E038527B0
:100C020082C007C006120B06D006D0078E828F83E1
:100C12007401F022AE25AF268E048F058C828D835F
:100C2200E0602E8C828D83E4F08E828F83A3A3F00A
:100C320074032EFCE43FFD8C828D83E060078C827E
:100C42008D83E4F0228E828F83A3A3A3A37401F089
:100C52002274042EFCE43FFD8C828D83E0603074AC
:100C6200022EFEE43FFF8E828F83E0FB0B8E828F8B
:100C720083EBF0BB0F004017751E01852782C0056C
:100C8200C004120B06D004D0058C828D83E4F022BE
:100C9200758200120AE2AF82758201C007120AE26F
:100CA200AE82D007EF6018EE6015752401900050F7
:100CB200E4F090004BF0900054F090004FF022E5E9
:100CC200246009EF7005EE7002F5242275254B753C
:100CD20026007527008F82C006120B6ED00674059F
:100CE200244BF525E43400F5267527018E82020B8C
:100CF2006EAE82AF83E5237003F582228E048F05E8
:100D0200E52275F002A4243FFA740035F0FB8A82D2
:100D12008B83E08C828D83F00EBE00010F8A828B62
:100D220083A3E08E828F83F0052274FA252250037A
:0D0D3200752200152375820122852482227E
:0400000002006C325C
:01000B0032C2
:0100130032BA
:01001B0032B2
:0300230002134184
:100028000000E2FBEAF2802C0000E0FBEAF080240A
:10003800E6B50202EBF62200E2B50202EBF222007C
:10004800E0B50202EBF02230F6E0A88220F5D3EA10
:10005800C6F582228B822230F6E6A88220F5D98066
:01006800CFC8
:1000C800754400754500754601754A00754B007505
:0B00D8004C00754D00754E00020069E1
:030069000215CBB2
:100D3F00AE82AF837C007D00C3EC9EED9F50147A92
:100D4F00B07B041ABAFF011BEA4B70F70CBC00E82A
:100D5F000D80E52253A0FD900096120D3F43A00297
:100D6F00900078020D3FAF8274075F4488F5BCE5B1
:100D7F00BC30E4FB53BCEFAEBD7F00EE2EFEEF3375
:100D8F00FFEE2EFEEF33FFACBE5304037D00EC4E9F
:100D9F00F582ED4FF58322A9827F0074F6251E5050
:100DAF0009E51E24F6F51E0F80F1A707E904F8A642
:100DBF001E22E582FFC4540FFE53060F53070FEE9A
:100DCF00C40354F8FDEE2E2D2FF58222AE82AF8391
:100DDF00E0F582C007C006120DC1AD82D006D00764
:100DEF007C000DBD00010CAA287B00C3EA9DEB64BB
:100DFF00808CF063F08095F050027D008D1E75821F
:100E0F0029C007C006120DA6D006D007E529C45485
:100E1F00F0FDE52A42058E828F83EDF022AE82AF80
:100E2F0083A3A3A3A3E0F582C007C006120DC1AD33
:100E3F0082D006D007BD022274062EF582E43FF55C
:100E4F0083E0FCC4540F25E0FB53040FEC2B540339
:100E5F0070047C1D80257C1C8021ED24F8920340BA
:100E6F000CED30E0047B1F80107B1E800CED30E01A
:100E7F00047D1E80027D1F8D038B0474032EFEE400
:100E8F003FFF8E828F83E0F582C007C006C0041239
:100E9F000DC1E582D004D006D00704FDC3EC9D50F0
:100EAF00027D018D1E75822BC007C006120DA6D0C4
:100EBF0006D007E52BC454F0FDE52C42058E828F3A
:100ECF0083EDF022AE82AF83900009E070078E822F
:100EDF008F8302024D90000AE0FF1F8F8202023EB5
:100EEF00AE82AF837D00ED2EF582E43FF583E4F013
:100EFF000DBD080040F0E52E704C852D1E75822F1C
:100F0F00C007C006120DA6D006D0078E828F83743D
:100F1F0018F074012EFCE43FFDE52F901F8C938C8D
:100F2F00828D83F074022EFEE43FFFE530901F8C1C
:100F3F0093F582C007C0061200E3AD82D006D0073A
:100F4F008E828F83EDF022858235858336AC31AD6D
:100F5F00328C828D83A3A3A3E0FBC4540FFA5302F8
:100F6F000F53030F8C828D83E0F9C4540FF8530095
:100F7F000F53010F7401B533128C828D83A3A3A37A
:100F8F00A3E0FFC4540FFA740F5FFBE533701374C3
:100F9F00062CF582E43DF583E0FFC4540FF8740F7F
:100FAF005FF97403B5330F8C828D83A3A3A3A3A31F
:100FBF00E0FF740F5FFAAE35AF367404B53303D369
:100FCF008001C392045009E5346005753700801025
:100FDF008C828D83A3A3E0C4540F901F8C93F5379D
:100FEF00C001A9378E828F83E9F074012535F5385A
:100FFF00E43536F539D001300408E53460047F005C
:10100F0080108C828D83A3A3E0FE740F5E901F8CE3
:10101F0093FF853882853983EFF074022535FEE41E
:10102F003536FF7405B53303D38001C392045009DD
:10103F00E5346005753800800F8C828D83A3E0C482
:10104F00540F901F8C93F538C001853882C007C0AC
:10105F0006C005C004C003C002C0001200E3A9828D
:10106F00D000D002D003D004D005D006D0078E8296
:10107F008F83E9F074032535F538E43536F539D02B
:10108F0001300408E53460047F00800F8C828D836B
:10109F00A3E0FE740F5E901F8C93FF853882853915
:1010AF0083EFF07401B53302800C7402B533028004
:1010BF00057403B53304E5347004C2048002D2040E
:1010CF00A204E433FFE53360057406B53304E53459
:1010DF007004C2048002D204A204E433FE74052516
:1010EF0035FCE43536FDEF60057538008007EA9072
:1010FF001F8C93F538AA388C828D83EAF0740425FF
:10110F0035FCE43536FDEF70057403B533047F000D
:10111F008006EB901F8C93FF8C828D83EFF074070A
:10112F002535FDE43536FFEE60047C008006E8903F
:10113F001F8C93FC8D828F83ECF074062535FDE4B4
:10114F003536FFEE60047E008006E9901F8C93FE1B
:10115F008D828F83EEF02285823C85833D853A1EFA
:10116F0075823E120DA6E53E901F8C93853C8285BD
:10117F003D83F07401253CFCE4353DFDE53F901FB8
:10118F008C93FB4303808C828D83EBF0853B1E7524
:10119F00823E120DA67402253CFCE4353DFDE53E72
:1011AF00901F8C93FB74804BF582C005C004120016
:1011BF00E3AB82D004D0058C828D83EBF0740325D2
:1011CF003CFCE4353DFDE53F901F8C938C828D8375
:1011DF00F07404253CFCE4353DFD7405253CFAE430
:1011EF00353DFB7406253CFEE4353DFF853C82858D
:1011FF003D83A3A3A3A3A3A3A3E4F08E828F83F0C5
:10120F008A828B83F08C828D83F022AE82AF83EE45
:10121F004F6009C3EE94FFEF9403400490FC192232
:10122F00EF24FEFF8E04C42354E0CCC423CC6CCC3B
:10123F0054E0CC6CFDEE2EFAEF33FBEE2AFEEF3BC3
:10124F00FFECC39EFCED9FFD90000BE0FF3395E09C
:10125F00FEEDC403CCC40354076CCC5407CC6CCC48
:10126F0030E20244F8FD74FAC39CFCE49DFD8F024A
:10127F00EEC40354F8CAC403CA6ACA54F8CA6AFB54
:10128F00EF2FFFEE33FEEF2AFAEE3BFBEA2CF5824F
:10129F00EB3DF5832275985075D7E075D6FE758EA8
:1012AF0014438E01D2ACD2AF22AF82C2AC8F99E57C
:1012BF009830E1FB5398FDD2AC22AF82E5426FFE2E
:1012CF007582AAC007C0061212B87582551212B8DD
:1012DF00D006D0078F82C0061212B8854282121232
:1012EF00B8D0067F00C3EF9542502CEF2540FCE4A9
:1012FF003541FD8C828D83E0F582C007C006C005A5
:10130F00C0041212B8D004D005D006D0078C828D3D
:10131F0083E062060F80CE8E820212B8AF829000F9
:10132F0055E543F07540557541007542018F8202B6
:10133F0012C9C0E0C082C083C007C0D075D000E51D
:10134F009830E01D9000F0E02456F582E43400F56B
:10135F0083E599F09000F0E004541FF05398FE805D
:10136F00035398FDD0D0D007D083D082D0E032AED7
:10137F0082AF83E090007CF08E828F83A3E0900099
:10138F007AF08E828F83A3A3E0900079F08E828F04
:10139F0083A3A3A3E090007BF08E828F83A3A3A3EC
:1013AF00A3E0900078F08E828F83A3A3A3A3A3E082
:1013BF00900077F074062EF582E43FF583E0FD533D
:1013CF00057F900076EDF0C007C0061204A6D00688
:1013DF00D00775460174072EF582E43FF583E09040
:1013EF000015F022AE82AF837D00ED2408FBE434BC
:1013FF0000FCED2EF582E43FF583E08B828C83F0C9
:10140F000DBD360040E402095FAF82BF8102802329
:10141F00BF82028033BF83028043BF8702806FBFCA
:10142F008802804FBF89028079BF8F0280012275A9
:10143F00440122E54470012274F8254940012285B8
:10144F00478285488302137EE54470012274CA25C2
:10145F00494001228547828548830213F3E5447092
:10146F00012274FF2549400122854782854883E088
:10147F00F54522E54470012274FC2549400122857F
:10148F004782854883A3A3A3E09000F2F022E544AE
:10149F0070012275400875410075423675828202CF
:1014AF0012C9E544604F74FF25495049AE47AF4814
:1014BF008E828F83E0FD70069000F3E4F022BD0171
:1014CF002274FD2549501C9000F37401F08E828F19
:1014DF0083A3E09000F4F08E828F83A3A3E09000AB
:1014EF00F5F022BD020F90007D7404F090007E7421
:1014FF00F0F0E4A3F0229000F1E0FF9000F0E0FEA6
:10150F00EFB50601229000F1E02456F582E4340095
:10151F00F583E0FF9000F1E0FE04541FF0E54A244C
:10152F00FA40D3E54A75F003A490153C7302154EAB
:10153F0002155602156302156C02158F0215B2BF04
:10154F00AAB4754A0180AFBF55047E0280027E00A7
:10155F008E4A80A28F4B8F4E754A038099EFF54CC0
:10156F00624E754D00E54C7005754A058088E54C57
:10157F0024C35006754A00021505754A0402150565
:10158F00AE4D054DEE2480F582E43400F583EFF087
:10159F00EF624EC3E54D954C5003021505754A0594
:1015AF00021505EFB54E0F754780754800854C49FC
:1015BF00854B82121418754A000215059000D8E465
:1015CF00F09000D9F09000DAF09000DBF09000DCA2
:1015DF00F09000DDF09000DE14F09000DFE4F0906A
:1015EF0000E0F0A3F09000E2F09000E3F09000E450
:1015FF00F09000E5F09000E6F09000E714F0900016
:10160F00E8E4F09000E9F0A3F09000EBF09000EC2C
:10161F00F09000EDF05395FD43960243A00253B1B5
:10162F00F353B2F3439004439D034391035392FC4E
:10163F0075BC80900001120D3F9000C8120D3F1233
:10164F0001EF1209891209389001F4120D3F1203AC
:10165F0077120B391212A49000C81204199000C807
:10166F00E030E7037546007F147E00C007C0061206
:10167F000C92121505D006D0079000D6C007C006F1
:10168F00120CF3E582D006D0077003021A97900070
:10169F00DF740AF090007DE0FDE060689000D6E016
:1016AF00702890007DE4F090007EF0A3F09000E2AF
:1016BF00F09000E0F0A3F043A002C007C006120DA7
:1016CF0063120D63D006D00780AF9000E2EDF0906B
:1016DF00001BE0FD7C008D037A00ECC454F0CDC4F8
:1016EF00CD6DCD54F0CD6DFC9000E0EAC39DF0EBD5
:1016FF009CA3F090007DE4F090007EF0A3F043A057
:10170F00020216889000F3E0604C9000D6E0701C47
:10171F009000D7E0FDBD0114754300758205C00729
:10172F00C00612132BD006D0070216889000D6E001
:10173F0060030216889000D7E0FDBD03028003020C
:10174F001688754301758205C007C00612132BD08A
:10175F0006D0070216889000DCE070379000DAE0C0
:10176F0070319000D6E0FDBD01299000D7E0FDBD9E
:10177F0003219000E3E060047D0080027D01900072
:10178F00E3EDF09000E4E4F09000E5F09000E6F077
:10179F000216889000E3E0FDE0605A9000D6E0FC6E
:1017AF00BC01299000D7E0FBBB0121BD01047D02E4
:1017BF0080027D019000E3EDF0BD0202800302166E
:1017CF00889000C8E09000E6F0021688EC600302F3
:1017DF0016889000D7E0FDBD0102800302168890A5
:1017EF0000E37401F09000E4E4F09000E5F0900065
:1017FF00E6F00216889000DAE07003021897900066
:10180F00D6E070379000D7E0FDBD012F9000DAE4ED
:10181F00F09000DBE0FD7003FC80027C019000097A
:10182F00ECF0ED60089000DBE090000AF0C007C01C
:10183F000612095FD006D0070216889000D6E0FD89
:10184F00BD010280030216889000D7E0FDBD0102A2
:10185F0080030216889000DBE0FDBD080092054072
:10186F00047C0080030D8D049000DBECF0EC700322
:10187F00FD80027D01900009EDF0EC7003021688E7
:10188F0090000AECF00216889000DCE07003021959
:10189F00C69000D6E070339000D7E0FDBD012B90CD
:1018AF0000DDE02401F0E024F940030216889000E7
:1018BF00DCE4F09000CFC007C0061204A675460105
:1018CF00120D63D006D0070216889000D6E0FDBD3A
:1018DF00010280030216889000D7E0FDBD0102804F
:1018EF00030216889000DDE0FD24F95003021688EC
:1018FF00ED2D2D9019067302191B0219420219655D
:10190F0002197602198A02199E0219B2752863907C
:10191F0000D5C007C006120DDBD006D0079000D54A
:10192F00E0FDBD260040030216889000D57426F016
:10193F0002168875280C9000D3C007C006120DDB65
:10194F00D006D0079000D3E060030216889000D332
:10195F007401F00216889000CFC007C006120E2C3B
:10196F00D006D0070216887528069000D4C007C08D
:10197F0006120DDBD006D0070216887528179000C7
:10198F00D1C007C006120DDBD006D007021688752E
:10199F00283B9000D0C007C006120DDBD006D00741
:1019AF0002168875283B9000CFC007C006120DDBCA
:1019BF00D006D0070216889000D6E070249000D78A
:1019CF00E0FDBD011C9000DA7401F0900009E07099
:1019DF0003FD800590000AE0FD9000DBEDF002169C
:1019EF00889000D6E070249000D7E0FDBD031C90D6
:1019FF0000DC7401F09000DDE4F09000CFC007C070
:101A0F0006120419D006D0070216889000D6E0708F
:101A1F002E9000D7E0FDBD02269000E87401F090F3
:101A2F0000E9740DF0E4A3F0F540F541F54275823D
:101A3F0001C007C0061212C9D006D007021688903F
:101A4F0000D6E0FDBD0103ED8001E4FD60109000C4
:101A5F00D7E0FCBC02089000D8E4F0021688ED70C5
:101A6F00030216889000D7E0FDBD01028003021625
:101A7F00889000D8E0FDBD020050030D80027D006C
:101A8F009000D8EDF002168890000AC007C0061229
:101A9F000D3FD006D0070EBE1800500302167AC0B5
:101AAF0007120D3BE582D00760309000EDE0240176
:101ABF00F0E0FEBE1500402B9000ECE0702590008A
:101ACF00EC7401F0E4F540F541F542758204C0076E
:101ADF001212C9120D63D00780099000EDE4F09047
:101AEF0000ECF0C007121505D0079000EBE02401C1
:101AFF00F0E0FEBE040040159000EBE4F0F540F579
:101B0F0041F542758202C0071212C9D007EF601368
:101B1F00DF11E544700DC007120D63120D63120D36
:101B2F0063D007758200C007120D75120ED3758230
:101B3F0001120D7512121AAD82AE839000C8C00645
:101B4F00C005120419D005D006D0079000C8E0FCDC
:101B5F009000E7E0FBECB5030280139000E7ECF098
:101B6F009000DFE0FCE06006EC149000DFF09000E6
:101B7F0016E0FC900017E0FB900018E0FA900019B7
:101B8F00E0F54FBCFF03D38001C392055003021C45
:101B9F0020BAFF03D38001C392054075EA9C9205DA
:101BAF0040379000CAE0F8C3EC98400EE8B5041C2B
:101BBF009000C9E0C39B92054012C3E89A4011E818
:101BCF00B502099000C9E0C3954F4004C2058002D9
:101BDF00D205A205E433F980359000CAE0F8C3ECD2
:101BEF00984024E8B5040A9000C9E0C39B920550C1
:101BFF0016C3E89A4011E8B502099000C9E0C395F1
:101C0F004F4004C2058002D205A205E433F9E97002
:101C1F0004C2058002D205A205E433F5509000C935
:101C2F00E0FB9000DEE0FAEBB50203021CC9900066
:101C3F00DEEBF0900008E0FBBB01149000D8E0FB56
:101C4F00BB020050030B80027B009000D8EBF07BAF
:101C5F00008B51E55175F003A4240CF8E43400F91E
:101C6F00880289048A828C83E06045C0037401284E
:101C7F00FAE439FC9000CAE0FB8A828C83E0B5035A
:101C8F00028004D0038029D003740228F8E439F9C4
:101C9F009000C9E0FC88828983E0B504138B040CA3
:101CAF0090007DECF090007E74F0F0E4A3F0800AD9
:101CBF000551AB5174FD2551509990007DE0604E58
:101CCF0090007EE0FBA3E0FC90007EE0F5F0A3E047
:101CDF0045F0607C1BBBFF011C90007EEBF0ECA37A
:101CEF00F090007EE0FBA3E0FC74035BF97A00C385
:101CFF00E99402EA9400500553A0FD800343A0022B
:101D0F00EB4C704C90007DE4F043A00280429000B9
:101D1F00E0E0FBA3E0FC9000E0E0F5F0A3E045F08D
:101D2F00602E1BBBFF011C9000E0EBF0ECA3F090CA
:101D3F0000E0E0F5F0A3E045F070159000E2E090D0
:101D4F00007DF090007E74F0F0E4A3F09000E2F0DC
:101D5F009000E3E0FCBC024B9000C8E0FC9000E672
:101D6F00E0FBECB50302803B9000E6ECF09000E462
:101D7F00E02401F0E0FCBC3C00400C9000E4E4F0F7
:101D8F009000E5E02401F09000E5E0FCBC64004029
:101D9F00129000E57463F09000E4743BF09000E360
:101DAF007401F09000E8E060289000E9E0FBA3E008
:101DBF00FC9000E9E0F5F0A3E045F0600F1BBBFFDE
:101DCF00011C9000E9EBF0ECA3F080059000E8E433
:101DDF00F090001CE0600B74FE254550055390FBFE
:101DEF0080034390049000D9E063E001F09000DAA3
:101DFF00E060199000DBE0F52D9000D9E0F52E9012
:101E0F0000C0C007120EEFD007021F589000DCE091
:101E1F00601F7531CF7532009000DDE0F533900013
:101E2F00D9E0F5349000C0C007120F56D007021F3B
:101E3F00589000F3E060199000F4E0F53A9000F547
:101E4F00E0F53B9000C0C007121166D007021F5883
:101E5F009000E3E060199000E5E0F53A9000E4E0CF
:101E6F00F53B9000C0C007121166D007021F5890B3
:101E7F0000E8E07003021F07E5447003FB8015E5DF
:101E8F004560099000F2E0F97A00800479947A01B4
:101E9F0089038A047C00BB640040098B02EA249CFE
:101EAF00FB0C80F27A00BB0A0040098B01E924F693
:101EBF00FB0A80F29000C07473F0EC901F8C93902B
:101ECF0000C1F0EA901F8C93F582C007C003120087
:101EDF00E3AC82D003D0079000C2ECF0EB901F8CE4
:101EEF00939000C3F09000C7E4F09000C6F090000C
:101EFF00C5F09000C4F08051E546602E9000D8E008
:101F0F00FC90001DE0B40100B39205E433F50D75AC
:101F1F000EC0750F007509C8750A008D0B8E0C8CDD
:101F2F0082C0071205CAD007801F9000D9E0FE7D3E
:101F3F0000ED24C0FBE43400FCEE6002747F8B8262
:101F4F008C83F00DBD080040E8E550601F9000DF66
:101F5F00E0701990007DE07013FEEE24C0F582E46E
:101F6F003400F583E4F00EBE080040EE9000C0C0D0
:091F7F000712016DD0070216786B
:061F9E000000000000003D
:06009B00E478FFF6D8FD39
:100079007908E94400601B7A01901F9C78EE75A00D
:1000890000E493F2A308B8000205A0D9F4DAF275E6
:02009900A0FFC6
:1000A1007800E84400600A790175A000E4F309D8FA
:1000B100FC78EDE84400600C7901900001E4F0A3C4
:0400C100D8FCD9FA94
:0D006C00758151121F88E582600302006952
:041F8800758200223C
:00000001FF
