:1000A500750800750940750A00750BFF750CFF751D
:0500B5000DFF750E07B0
:1000BD00E582FFA2E3E433FEEFC4540125E04206DE
:1000CD00EFA2E5E43325E025E04206EF5401C40339
:1000DD0054F84206EF035401C454F04206EF0303F3
:1000ED005401C42354E04206EF2323540103035467
:1000FD00C0420674805F4EF5822275190074F62594
:10010D00194007E51904F51980F322AF827E0053DB
:10011D00A0EFEF30E00543A020800353A0DFC00720
:10012D00C00612010743A010120107D006D007EF39
:10013D00C313FF0EBE080040D622750F00751000C8
:10014D007511007512007513007514007515007585
:10015D00160043A03890000F75F04012016E020397
:10016D002EAD82AE83AFF0A2A9E433F517C2A95329
:10017D00A0F7C007C006C005120107758240120125
:10018D001843A00812010753A0F71201077582C08A
:10019D00120118D005D006D0077B00EB2DF8E43EF8
:1001AD00F98F02888289838AF012095DFC740F5CD5
:1001BD00F582C007C006C005C003C002C001C00063
:1001CD00120118D000D001D002888289838AF012E2
:1001DD00095DC4540FF582120118D003D005D00665
:1001ED00D0070BBB080040B343A00812010753A072
:1001FD00F71201077488450EF58212011843A00805
:10020D00E51724FF92A922AF82A2A9E433FEEF24C1
:10021D00F850027F078F0E430788C2A953A0F7C07D
:10022D0007C006120107D006D0078F82C006120143
:10023D0018D00643A008EE24FF92A922E58260079C
:10024D007488450EFF80027F8053A0F7C00712010E
:10025D0007D0078F8212011843A00822AF82A2A9EE
:10026D00E433FEC2A9EF60047D0180027D008D089C
:10027D00E51824BF5003751840851809EF700CF56B
:10028D000A758201C006120249D006EE24FF92A91A
:10029D0022AE82AF83C3E49E74029F403A8E198FC3
:1002AD001A9000071208F3E583C313FC7407C39C6F
:1002BD00FCB50B04E50D600B8C82C004120214D04A
:1002CD00048C0BE50D60597518407582001202699A
:1002DD00750D00750C40228E19EF24FEF51A900055
:1002ED003F1208F37519FF751A011208AFAE82742B
:1002FD0040C39EFEE50B600D758200C00612021410
:10030D00D006750B007401B50D05EEB50C01228EEE
:10031D0018758201C006120269D006750D018E0C8A
:10032D0022E589540F4401F589758CFF758AC6C283
:10033D008DD2A9D2AFD28C22C021C0E0C0F0C08234
:10034D00C083C007C006C005C004C003C002C00101
:10035D00C000C0D075D000758CFF758AC6C28DE502
:10036D00086022E50A7008758201120249800BE5CA
:10037D0009B50A06758200120249050A74C0250ADC
:10038D005003750A00D0D0D000D001D002D003D0D8
:10039D0004D005D006D007D083D082D0F0D0E0D0E5
:0203AD002132FB
:1009B3003F065B4F666D7D077F6F777C395E79718C
:0300000002004CAF
:100008000000E2FBEAF2802C0000E0FBEAF080242A
:10001800E6B50202EBF62200E2B50202EBF222009C
:10002800E0B50202EBF02230F6E0A88220F5D3EA30
:10003800C6F582228B822230F6E6A88220F5D98086
:01004800CFE8
:0300BA00020049F8
:030049000206AFFD
:1003AF00AE82AF837C007D00C3EC9EED9F50147A2C
:1003BF00B07B041ABAFF011BEA4B70F70CBC00E8C4
:1003CF000D80E522AF8274075F4488F5BCE5BC3031
:1003DF00E4FB53BCEFAEBD7F00EE2EFEEF33FFEE1E
:1003EF002EFEEF33FFACBE5304037D00EC4EF582BF
:1003FF00ED4FF5832275220175230075240022E548
:10040F00227003F52422E52330E0047F0080027F71
:10041F00018F24052374F8252350067522007524B7
:10042F000022AD82AE83AFF07519E8751A038525EA
:10043F0082852683C007C006C0051208AFAB82D0E5
:10044F0005D006D00775F00AEB84E5F09009B39359
:10045F008D828E838FF01208D874012DFAE43EFB43
:10046F008F04751964751A00852582852683C00748
:10047F00C006C005C004C003C0021208AF75190A38
:10048F00751A00120910A882A983D002D003D004D4
:10049F00D005D006D007E824B3F582E93409F583F7
:1004AF00E4938A828B838CF01208D874022DFAE4BD
:1004BF003EFB8F0475190A751A00852582852683E0
:1004CF00C007C006C005C004C003C0021208AF7544
:1004DF00190A751A00120910A882A983E824B3F526
:1004EF0082E93409F583E493F5821200BDA982D025
:1004FF0002D003D004D005D0068A828B838CF0E91A
:10050F001208D874032DFDE43EFE75190A751A0002
:10051F00852582852683C006C005120910AB82ACE3
:10052F0083D005D006D007EB24B3F582EC3409F560
:10053F0083E4938D828E838FF00208D885822A857B
:10054F00832B85F02C74015528FB7C007A00BA04AC
:10055F0029A827790088828983A3A3A3A3A3751948
:10056F0008891AC004C003C002120979A882D002F8
:10057F00D003D004E804F9020633BA0528A8277F70
:10058F000088828F83A3A3A3A37519088F1AC004B1
:10059F00C003C002120979AE82D002D003D004EE9C
:1005AF0004F9020633BA0628AE277F0074072EF52A
:1005BF0082E43FF5837519088F1AC004C003C00287
:1005CF00120979AE82D002D003D004EE04F9805420
:1005DF00BA0728AE277F0074062EF582E43FF58315
:1005EF007519088F1AC004C003C002120979AE82B0
:1005FF00D002D003D004EE04F980298A067F00A828
:10060F00277D00E82EF582ED3FF5837519088F1AC7
:10061F00C004C003C002120979AE82D002D003D049
:10062F0004EE04F9EA252AFDE4352BFEAF2CE99000
:10063F0009B3938D828E838FF01208D8BA02328D50
:10064F00828E838FF012095DF582C007C006C00548
:10065F00C004C003C0021200BDA982D002D003D0D3
:10066F0004D005D006D0078D828E838FF0E9120853
:10067F00D8EB4C6021EA252AFDE4352BFEAF2C8DFB
:10068F00828E838FF012095DF94301808D828E83F4
:10069F008FF0E91208D80ABA0800500302055D224C
:1006AF007536007537007538007539005395FD4361
:1006BF00960243A00253B1F353B2F39000C8120352
:1006CF00AF5390FB439D034391035392FC75BC8042
:1006DF009000011203AF120147E4F527F528F52921
:1006EF0090002D75F04012054B90002D75F04012C3
:1006FF00016E90012C1203AF1204047A007B007577
:10070F008200C003C0021203D3AD82AE83D002D0E9
:10071F00038D3A8E3BC3E49D74029E5006753A00DA
:10072F00753B02853A19853B1A900007C006C00534
:10073F00C003C0021208F3AF83D002D003D005D09C
:10074F0006EFC313FC7407C39CF5358D828E83C0EF
:10075F0006C005C003C00212029ED002D003D0050E
:10076F00D0060ABA00010B8A04EBC423CCC423546D
:10077F001F6CCC541FCC6CCCE53670198C278A2893
:10078F008B2990002D75F040C003C00212054BD08D
:10079F0002D00380777401B536398D258E269000EF
:1007AF002D75F040C003C002120431D002D003AC4B
:1007BF00358C0775F00AEF849009B393F53475F013
:1007CF000AEC84E5F09009B393F533753100753277
:1007DF00008039758201C003C0021203D3858225C0
:1007EF00858326D002D00390002D75F040C003C042
:1007FF0002120431D002D0039009B9E493F532907C
:10080F0009B9E493F53175330075340090002D75F7
:10081F00F040C003C00212016E12040ED002D003CA
:10082F007F00E5B003035401B401009200E433FEEE
:10083F00E5B0A2E3E433B401009200E433FDEE60CF
:10084F0010ED600D0539749C2539501E75360080EA
:10085F0019753900ED6009E5387005753601800AA4
:10086F00EE6007E53770037536028E378D38EE6010
:10087F0008ED600553A0FD800CE524600553A0FD35
:10088F00800343A002900014C007C003C0021203EC
:10089F00AFD002D003D0070FBF0C00408502070E68
:1008AF007A10E4FBFCE58225E0F582E58333F583DE
:1008BF00EB33FBEC33FCEB9519F5F0EC951A400696
:0908CF00FCABF0438201DADD22EA
:06007B00E4787FF6D8FDD9
:100059007900E94400601B7A009009C3780175A012
:1000690000E493F2A308B8000205A0D9F4DAF27506
:02007900A0FFE6
:1008D80020F71130F6138883A88220F509F6A8833B
:1008E8007583002280FEF280F5F022E5828519F0FA
:1008F800A4C582C0F0851AF0A4D0F025F0C5838580
:1009080019F0A42583F58322E519451A60467A0172
:10091800E51925E0F519E51A334012F51AE582952F
:1009280019E583951A40030A80E6C3E51A13F51AF8
:10093800E51913F519C3E5829519F5F0E583951ABC
:100948004005F58385F082C3E51A13F51AE51913F6
:05095800F519DAE122AF
:100081007800E84400600A790175A000E4F309D81A
:10009100FC7800E84400600C7900900001E4F0A3D2
:0400A100D8FCD9FAB4
:0D004C0075813B1209AFE582600302004997
:10095D0020F71430F6148883A88220F507E6A883C3
:10096D0075830022E280F7E49322E022C2D5E5836D
:10097D0030E70DD2D5E4C39582F582E49583F583F6
:10098D00E51A30E70BE4C39519F519E4951AF51A34
:10099D0012091030D50BE4C39582F582E49583F5E9
:0609AD0083227582002286
:00000001FF
